:100000000C9493010C94A5010C94A5010C94072267
:100010000C94851E0C94A5010C94A5010C94A501CB
:100020000C94A5010C94A5010C94A5010C94F71552
:100030000C94A5010C94A5010C94A5010C94A501A8
:100040000C94AB150C94A5010C94E12C0C94F528A0
:100050000C94A5010C94A5010C94A5010C94A50188
:100060000C94A5010C94A5018A06900693069606A9
:100070009B06A306AB06460746074607B806BB061F
:10008000C406CD0646074607460746074607460705
:10009000D906E306EF06F706FA0603070C07120770
:1000A000460746071B0724072F0769094F154F15F9
:1000B000730980098D099A094F159E094F15AC09DE
:1000C0004F15B609C009CA094F154F154F15DA0962
:1000D000E709F409172D192D522D522D522D522DAD
:1000E000522D522D522D522D522D522D1F2D212D7C
:1000F000232D252D272D292D2B2D2D2D522D312D25
:10010000332D352D372D392D3B2D522D3D2D084AC0
:10011000D73B3BCE016E84BCBFFDC12F3D6C74311B
:100120009ABD56833DDA3D00C77F11BED9E4BB4C72
:100130003E916BAAAABE000000803F05A84CCDB23C
:10014000D44EB93836A9020C50B9918688083CA61D
:10015000AAAA2ABE000000803F000D0A4772626C06
:1001600020312E3166205B27242720666F7220689D
:10017000656C705D0D0A00244E005B4F50543A00D0
:100180005B5645523A312E31662E3230313730319E
:1001900033313A005B544C4F3A005B4739323A00F6
:1001A0003330003238005B4700204700204D0020EC
:1001B000530020460020540033382E005B47433A5A
:1001C00047005B484C503A24242024232024472015
:1001D000244920244E2024783D76616C20244E78DA
:1001E0003D6C696E6520244A3D6C696E6520245320
:1001F0004C50202443202458202448207E202120B5
:100200003F206374726C2D785D0D0A00536C656538
:1002100070696E6700526573746F72696E672073E0
:1002200070696E646C6500526573746F72696E6795
:100230002064656661756C74730050676D20456E4F
:100240006400436865636B204C696D697473004397
:100250006865636B20446F6F720044697361626C00
:10026000656400456E61626C656400436175746924
:100270006F6E3A20556E6C6F636B6564002724487F
:10028000277C2724582720746F20756E6C6F636B52
:1002900000526573657420746F20636F6E74696EAD
:1002A0007565005B4D53473A00414C41524D3A0051
:1002B0007C413A007C4F763A007C57434F3A007CB1
:1002C000506E3A007C46533A007C4C6E3A007C42B9
:1002D000663A007C57506F733A007C4D506F733A0A
:1002E00000536C65657000446F6F723A0043686537
:1002F000636B00416C61726D00486F6D65004A6F01
:100300006700486F6C643A0052756E0049646C6512
:10031000000D0A005B5052423A006572726F723AE9
:10032000006F6B0D0A0011241FBECFEFD8E0DEBFB7
:10033000CDBF17E0A0E0B1E001C01D92A138B10728
:10034000E1F70E94F8010C94563E0C940000EF92E5
:10035000FF921F93CF93DF93EC017B01809171019A
:1003600085FF24C010911A01103201F1CE010E94C4
:10037000E91D8823D9F081E080931D01183041F0F8
:100380000E94BD2C82E00E94D01D0E94232A0EC034
:1003900088E00E94E01D0E94232A80911B018111A8
:1003A00005C080911A018111F6CFEACF80911A0120
:1003B0008230C1F00E94232A80911B01811112C05A
:1003C0009091FF018091FE01981303C00E94ED28D7
:1003D000F1CFB701CE01DF91CF911F91FF90EF9048
:1003E0000C943323DF91CF911F91FF90EF900895EC
:1003F000CF93DF93CDB7DEB762970FB6F894DEBF29
:100400000FBECDBF8091C00082608093C00010926B
:10041000C50080E18093C4008091C1008869809309
:10042000C10080E090E00E94152F8A3009F06BC572
:1004300045E550E061E070E08CE291E00E941D2F04
:10044000892B09F460C58AB18C618AB9209A8AB176
:10045000806E8AB9809181008F7E80938100809127
:100460008100886080938100809180008C7F8093E0
:100470008000809180008F708093800080916E005A
:10048000887F80936E0014BC15BC80916E008160E3
:1004900080936E0087B1887F87B988B1876088B9FB
:1004A00080916C00876080936C008091680082600E
:1004B000809368008CE0E1E0F1E0DF011D928A9515
:1004C000E9F7789410921A018091710184FF03C0BA
:1004D00081E080931A011DE0C12E11E0D12E8091A0
:1004E0001A0192E1EAE1F1E011929A95E9F780931D
:1004F0001A0184E6809321018093220180932301D5
:100500008CE0D6011D928A95E9F71092190110929C
:100510004705109248051092490510924A058091AE
:10052000FB018093FC0180E4E1E8F1E011928A95FF
:10053000E9F765EA71E080E00E94642F811103C051
:1005400087E00E9441200E94842C3B9A43980E949D
:1005500056223D98459A80E00E94BD1E0E941E28AA
:100560000E94A2380E949E220E94B72C8AE591E048
:100570000E942E208091710183FF11C00E943622BB
:10058000882369F081E080931A0183EA92E00E9457
:100590002E2082E492E00E942E200E94D821809199
:1005A0001A018178B1F083EA92E00E942E208DE753
:1005B00092E00E942E200E94D82181E080931A01AF
:1005C00000E010E0F2E0EF2EA3E02A2EB4E03B2E94
:1005D00034C010921A010E94711E80FF07C08091E2
:1005E00047058062809347050E94232A0E94552078
:1005F000E7CFE92FF0E0E55BFA4F80819F5F91380C
:1006000009F490E09093FC018F3FE9F08A3021F5E6
:100610000E94232A80911B01811161CFE02FF0E01D
:10062000EF5CF84F1082F12FF170FF2E10FF18C011
:100630008BE00E94412000E010E09091FC0180914D
:10064000FB018913D6CF0E94ED280E94232A8091B6
:100650001B01882391F343CF8D3009F02CC4D8CFF0
:1006600080913107882309F423C4843209F018C427
:1006700021E0298B80913207833409F134F48823F7
:1006800061F0843209F01BC11AC08A3459F08835F0
:10069000B1F0873409F013C112C082EC91E00E94DE
:1006A0002E20FCC380911A018F7D09F0E7C3809151
:1006B00033078D3309F0EAC30E948C07E2C390919F
:1006C00033079111E3C3833409F4BDC01CF48432B1
:1006D00039F0E4C3873469F0883509F4D4C0DEC347
:1006E00080911A018871F82E09F0C8C30E94C620B3
:1006F000D5C38CEB91E00E942E20809181018C3833
:1007000038F088EB91E00E942E20809181018A5878
:100710000E94082089EA91E00E942E2080918701A2
:100720008A5C0E94082089EA91E00E942E20809134
:1007300085018F5E0E94082089EA91E00E942E20A8
:100740008091830195E1981B892F0E94082089EAF6
:1007500091E00E942E2080918401865A0E940820F8
:1007600089EA91E00E942E2080918201AEE5A81BCB
:100770008A2F0E94082080918801882399F08CEAB2
:1007800091E00E942E2080918801833029F08E31E3
:1007900039F0823039F404C080E30E941F2902C07E
:1007A0000E9408208CEA91E00E942E2080918A010C
:1007B000803131F0803231F0811107C085E303C010
:1007C00083E301C084E30E941F298CEA91E00E9428
:1007D0002E2080918901882311F088E301C089E3EC
:1007E0000E941F2980912701811107C08CEA91E0A6
:1007F0000E942E2088E30E94082085EB91E00E9451
:100800002E20809194010E94082082EB91E00E94AA
:100810002E206091900170919101809192019091B0
:1008200093010E946D1F8FEA91E00E942E2060913B
:100830008C0170918D0180918E0190918F0140E02B
:100840000E94CF1E0EC080911A01823069F40E946E
:10085000BD2C83EA92E00E942E208AE592E00E945D
:100860002E200E94D8211AC3811108C3E0921A01D8
:1008700083EA92E00E942E2083E692E00E942E20DE
:100880000E94D82145C080911A01813009F006C329
:100890000E94711EB82FB170FB2E80FF03C0EDE0E7
:1008A000FE2EFCC283EA92E00E942E208BE692E0AC
:1008B0000E942E200E94D82110921A01EFC290911E
:1008C0001A01923008F0DAC2893409F4A3C034F472
:1008D000833271F0883409F45AC04DC1823509F46D
:1008E000F4C0833509F484C08E3409F044C11DC1BD
:1008F000809133078111CAC210E0BE016F5F7F4F44
:10090000812F0E94642F811105C087E00E94412041
:10091000F12CC4C286EA91E00E942E20163029F004
:10092000173041F480EA91E002C083EA91E00E942E
:100930002E2004C086E3810F0E9408208AE30E94D3
:100940001F29CE0101960E948B1F0E94D8211F5F94
:10095000183099F68AE991E00E942E2081EB91E00F
:100960000E948B1F0E94D82184E991E00E942E20D2
:100970006091BD017091BE018091BF019091C00155
:100980000E947C1F0E94D8210E94DD2187C2809195
:10099000710184FF70C20E94711E80FD80CF309271
:1009A0001A0180913307811171C20E944B2284E0A9
:1009B0000E94142683E00E9414260E94232A80911C
:1009C0001B01811106C00E94B72C0E949E220E942A
:1009D000562280911B01811161C210921A010E945E
:1009E000C11580913307811159C20E94552090CFC3
:1009F000809133078C3409F049C2809134078035E7
:100A000009F044C280913507811140C280E80E94FC
:100A1000E01D44C2E98A80913307811139C040E565
:100A200050E06EEA73E081E397E00E941D2F892B6E
:100A300051F41092310740E550E061E377E08EEA2F
:100A400093E00E94852D80E891E00E942E200E9474
:100A50008F1D0E94D8218AE791E00E942E2086E512
:100A60000E941F298EE40E941F2980E50E941F29F1
:100A700082E50E941F298CE20E941F298EE00E94BD
:100A800008208CE20E941F2980E80E940820E9CEFD
:100A9000298A8D3309F0FAC183E0282F30E0F9016B
:100AA000EF5CF84F9081D901A25DB84F9C938F5FA6
:100AB00090819111F2CF898B40E550E061E377E0BE
:100AC0008EEA93E00E94852DE9C18091330783353A
:100AD00009F0DCC180913407843509F0D7C18091D9
:100AE00035078D3309F0D2C1809137078111CEC10E
:100AF00080913607843239F08A3239F0833209F036
:100B0000C5C182E003C081E001C08DE00E94EE2DEE
:100B100083EA92E00E942E2087E292E00E942E203B
:100B20000E94D8210E94BD2CB9C1E98A8091330767
:100B300081111DC010E0812F0E949C1D811104C0F5
:100B400087E00E9441200EC087E791E00E942E209E
:100B5000812F0E9408208DE30E941F290E948F1D73
:100B60000E943D20113009F499C111E0E4CF9111A8
:100B700085C111E001C010E0BE01635F7F4FCE016F
:100B800041960E94D538811103C072E0F72E86C1CC
:100B9000E98981E08E0F898BF0E0EF5CF84F90815E
:100BA0009D3309F073C1112379F1482F50E0282FAC
:100BB00030E0F901EF5CF84F9081241B350BD9012F
:100BC000AF5CB84F9C938F5F90819111F0CF898B70
:100BD0000E948C07811155C16D857E858F8598890E
:100BE0000E94C13D0E94FF3A6A8B0E944B2C6A8989
:100BF000E1E56E9FC001112440E550E061E377E03C
:100C00009D5F0E94852D84CEBE016F5F7F4FCE0118
:100C100041960E94D538882309F4B7CFE989F0E0DE
:100C2000EF5CF84F8081811131C18D849E84AF8447
:100C3000B88820E030E04FE753E4C501B4010E94DA
:100C40009E3C18160CF422C149805A806B807C802F
:100C5000C501B4010E94FF3A062F20E030E0A9014F
:100C6000C301B2010E947C3A87FD0DC1043608F42D
:100C700041C0045680E00330A0F510E0000F111FC2
:100C8000000F111F823079F0F801833019F18130A3
:100C900019F0E45DFE4F02C0E85CFE4F40825182D5
:100CA00062827382E5C00C5B1E4F20E030E040E7BB
:100CB00052E4C301B2010E94DE3C20E030E040E794
:100CC00052E40E94DE3CD8016D937D938D939C93FA
:100CD0001397CEC0E05BFE4F77FA709477F870946C
:100CE000DDCF8F5F0A3008F4D1C0843009F4CEC064
:100CF0000A50C1CFC301B2010E94C13D0E94FF3A18
:100D000010E00132110508F0C1C0F801EC5CFF4FA2
:100D10000C94343E633008F4BCC060935C01A8C0FE
:100D200060935F01A5C060935D0102C060935E01A6
:100D30000E9491159DC080917101662311F084601D
:100D400095C08B7F93C080917101662311F0806400
:100D50008DC08F7B8BC080917101662311F08068FC
:100D600001C08F778093710180E00E94BD1E80C01A
:100D7000609360017DC04092610150926201609277
:100D800063017092640174C04092650150926601E3
:100D900060926701709268016BC080917101662357
:100DA00011F0816001C08E7F809371010E946C1EE2
:100DB0005FC080917101662321F084FF6DC0806265
:100DC00055C08F7D53C080917101662311F08860FA
:100DD00001C0877F809371010E94562249C0809193
:100DE0007101662311F0806141C08F7C3FC0609328
:100DF00072013EC04092730150927401609275017D
:100E00007092760135C040927701509278016092DD
:100E1000790170927A012CC070E070937C0160932C
:100E20007B0126C040927D0150927E0160927F013D
:100E3000709280011DC04092690150926A016092D7
:100E40006B0170926C0108C040926D0150926E016E
:100E500060926F01709270010E94842C09C0809191
:100E60007101662311F0826001C08D7F8093710152
:100E70000E94C52D13C055E0F52E10C048E0F42E99
:100E80000DC0F82E0BC034E0F32E08C023E0F22E84
:100E900005C096E0F92E02C08AE0F82E8F2D08C01A
:100EA00080911A01817211F089E0C3CB0E948C07F6
:100EB0000E944D20C0CB112329F0893209F0BDCB0F
:100EC0001D7FBBCB813208F4B8CB8F3209F4B5CB90
:100ED000883299F08B3399F00F3498F4202F30E05A
:100EE000E1E0E00F9FE9980FD901AF5CB84F9A316C
:100EF00008F480528C930E2FA0CB12E09ECB14E00E
:100F00009CCB11E09ACB87E00E9441208DE00E94AB
:100F1000EE2D0E94C62097CA2F923F924F925F9269
:100F20006F927F928F929F92AF92BF92CF92DF92F9
:100F3000EF92FF920F931F93CF93DF93CDB7DEB75E
:100F4000CE54D1090FB6F894DEBF0FBECDBF8AE3F1
:100F5000E1ECF1E0DF011D928A95E9F78BE0E1E831
:100F6000F1E0A2ECB1E001900D928A95E1F7809159
:100F70003107843211F00C94731581E08093C20123
:100F80001092C30183E08E8FB1E0BFA3212C312CDE
:100F90001EAA1DAAC12C1F8E1BA2DD24D3946AE0B9
:100FA000A62EB12C0EE571E6872E73E0972E8E8D5E
:100FB000E82FF0E0EF5CF84FE080EE2009F446C245
:100FC0009FEB9E0D9A3110F00C943F158F5F8E8F22
:100FD000BE01665E7F4FCE014E960E94D5388823B3
:100FE00011F40C9441154A8C5B8C6C8C7D8CC30184
:100FF000B2010E94C13D0E94FF3A162F70E080E0CE
:1010000090E00E94303B9B01AC01C301B2010E9401
:10101000863920E030E048EC52E40E94DE3C0E9439
:101020004B3D0E94FF3ACB01E7E4EE1629F0FDE4C8
:10103000EF1609F4EAC03BC1183209F4C5C020F527
:10104000143168F4113108F08AC0143009F452C028
:1010500008F464C01A3009F445C00C944F151C31D3
:1010600009F440C050F4163110F00C944F1525E1EE
:10107000211B2093C40126E0ACC01E3199F1163229
:1010800009F44CC00C944F151D3309F497C0A8F413
:10109000153381F140F41B3209F47AC0113309F49D
:1010A00077C00C944F151C3310F00C944F156AEC5C
:1010B000610F6093C80129E08CC01C3538F41A35E3
:1010C00008F053C0103581F10C944F151C3551F0C8
:1010D0001F3510F00C944F15202F211B2093C301B6
:1010E00025E077C0009731F42BA121110C94431512
:1010F00031E03BA31093C101212F2D7F2C3119F03A
:101100001C3509F063C0009721F00A9711F00C9488
:101110004F15610F6093C10120E060C06BA16111A8
:101120000C944315A2E0ABA31093C201163209F050
:101130004FC08431910559F08E31910541F08832CC
:10114000910529F08233910511F00C944F15B501EA
:101150000E94FE3D66576093C20121E03FC06FEEE2
:10116000610F6093C60122E034C0892B31F466EA36
:10117000610F6093C50123E031C06A30710511F041
:101180000C944F151A3511F40C944F1524E026C019
:10119000BBA1B1110C944315113331F41092C70166
:1011A00028E0E3E0EBA31AC00A9711F00C944F1566
:1011B000D092C70128E0F3E0FBA310C0892B11F007
:1011C0000C944F152AE00AC027E003C020E001C0BC
:1011D00021E0892B19F087E10C94771581E090E0EC
:1011E00002C0880F991F2A95E2F72DA93EA928234E
:1011F0003923232B19F085E10C9477152DA93EA9ED
:10120000282B392B3EAB2DABD2CE892B21F71630B4
:1012100018F4133090F01DC01E31C1F030F488EF87
:10122000810F823020F10C944F15183311F00C947B
:101230004F151092CC018EE025C0112319F011300A
:1012400001F104C033E03093C9011BC01093C90100
:1012500018C0143021F0153031F080E101C080E277
:101260008093CB0102C01092CB018CE00BC01930EF
:1012700021F080E48093CA0102C01092CA018DE07F
:1012800001C08BE0A1E0B0E002C0AA0FBB1F8A95AD
:10129000E2F72DA93EA92A233B23232B09F0ABCF4C
:1012A000EDA9FEA9EA2BFB2BFEABEDAB80CE8E2D7C
:1012B000992787FD9095A92FB92FFC01E654F109D4
:1012C000E531F10510F00C944F15EB5AFF4F0C94DB
:1012D000343E4092CD015092CE016092CF01709287
:1012E000D00180E08DC04092D1015092D201609235
:1012F000D3017092D401FC2DF160CF2E81E080C02B
:101300004092D5015092D6016092D7017092D801D7
:101310002C2D2260C22E82E073C04092D9015092DF
:10132000DA016092DB017092DC013C2D3460C32E47
:1013300083E066C01093DD0184E062C0C301B201A6
:101340000E94F83A6093DE017093DF018093E00120
:101350009093E10185E054C04092E2015092E30194
:101360006092E4017092E50186E04AC04092E60195
:101370005092E7016092E8017092E90187E040C075
:101380004092EA015092EB016092EC017092ED0103
:1013900088E036C020E030E04FE753E4C301B201FB
:1013A0000E949E3C181614F40C9445151093EE01FF
:1013B00089E026C04092EF015092F0016092F10165
:1013C0007092F2016F8D61606F8F8AE019C0409258
:1013D000F3015092F4016092F5017092F6018F8D45
:1013E00082608F8F8BE00CC04092F7015092F80121
:1013F0006092F9017092FA019F8D94609F8F8CE04A
:10140000EE24E394F12C082E02C0EE0CFF1C0A948B
:10141000E2F7970122213321232B11F00C94471579
:10142000D40102C0B595A7958A95E2F7A0FF0BC03D
:1014300020E030E0A901C301B2010E947C3A87FF9D
:1014400002C00C9449152E283F28B1CDBF8DBB2377
:1014500029F0EBA1E11102C0F2E0FBA325FE0FC0D1
:101460008091DE019091DF01A091E001B091E10156
:1014700081389649A849B10514F00C944B153FA149
:10148000332329F020FC02C00C94551518C080911C
:10149000C301813071F46BA16230E1F58091C2012A
:1014A0008035C1F18823B1F120FC02C00C945515A0
:1014B00031C08091820181112DC020FE1BC080911E
:1014C000C401813039F523E333E34BEC51E46091FF
:1014D000CD017091CE018091CF019091D0010E94F9
:1014E000DE3C6093CD017093CE018093CF01909349
:1014F000D00110C08091900190919101A091920132
:10150000B09193018093CD019093CE01A093CF0130
:10151000B093D00130FC10C080918C0190918D016E
:10152000A0918E01B0918F018093EA019093EB011D
:10153000A093EC01B093ED018DA99EA996FF16C072
:1015400026FE14C020E030E0A9016091E201709114
:10155000E3018091E4019091E5010E947C3A8111C0
:1015600003C081E08093CC01E89426F88091C1010A
:10157000843039F426FC03C08CE10C947715E89490
:1015800026F88091C601882371F0813031F491E012
:101590009FAF19AEA2E0AFAB0BC01FAEB2E0B9AFC8
:1015A000E1E0EFAB05C0F2E0FFAF21E029AF1FAAF9
:1015B0008091C401813021F03BA13330A9F52BC0CB
:1015C0004FEEE42E41E0F42E00E010E06F8DA62EE9
:1015D000B12CC501002E02C0959587950A94E2F7BB
:1015E00080FF10C023E333E34BEC51E4D7016D914E
:1015F0007D918D919C910E94DE3CF7016083718307
:10160000828393830F5F1F4FF4E0EF0EF11C0330D2
:101610001105F9F6D1CF8091C701813029F42F8DC2
:10162000243011F00C944D158CE0E5EAF1E0DE0178
:101630001E9601900D928A95E1F78DA99EA991FDC4
:1016400009C09091C1019BA79A30C9F09C3509F45B
:10165000AFC010C18091C801873018F08DE10C94A3
:10166000771590918701981761F3BE01625F7F4FF4
:101670000E94642F882311F40C946315E2CFAF8D80
:10168000A11103C08AE10C947715C10180759927D7
:10169000892B09F471CF6091E2017091E30180918F
:1016A000E4019091E5010E94C13D0E94FF3A67303C
:1016B000A8F68091DD01843141F0823011F00C9464
:1016C0004F1527FE02C00C944F15BFEA2B2266234C
:1016D00019F0615069AB03C0E091C801E9AB61ED5D
:1016E00071E089A90E94642F882311F40C9463157A
:1016F000D090DD014090BD015090BE016090BF01CF
:101700007090C00101ED11E039E9A32E31E0B32E54
:10171000E12CF12CFF8D8F2E912CC4010E2C02C0D8
:10172000959587950A94E2F780FF34C024E1D212A0
:1017300028C0D50158962D913D914D915C915B97B4
:101740006D917D918D919C910E948639F801268D35
:10175000378D40A151A10E948639D8016D937D93A8
:101760008D939C931397B2E0EB16F10499F4A301C7
:1017700092010E948639F80160837183828393838A
:1017800009C0F801868D978DA0A1B1A180839183B6
:10179000A283B383FFEFEF1AFF0A0C5F1F4F24E011
:1017A000A20EB11C33E0E316F10409F0B6CF30C14C
:1017B0006F8D662309F466CF4090BD015090BE0145
:1017C0006090BF017090C0010FEE11E0A12CB12C10
:1017D000E12CF12C862E912CF501EF57FE4FC40120
:1017E0000E2C02C0959587950A94E2F780FF2BC0D6
:1017F000AEE0B0E0AC0FBD1FAA0DBB1D2D913D9119
:101800004D915C91608D718D828D938D0E94863992
:10181000D8012D913D914D915C910E948639F8013E
:101820006083718382839383F2E0EF16F104A1F465
:10183000A30192010E948639D8016D937D938D9307
:101840009C93139709C080A991A9A2A9B3A9F801F3
:1018500080839183A283B383FFEFEF1AFF0A24E012
:10186000A20EB11C0C5F1F4F33E0E316F10409F028
:10187000B3CFCDC06BA1633071F48BA58E3109F469
:101880008CC0853309F4BDC08C3109F0C0C061ED56
:1018900071E086E085C09F8D992379F3D090C501D2
:1018A0004090BD015090BE016090BF017090C0019A
:1018B00029E9A22E21E0B22E0FEE11E04E01AEE09A
:1018C0008A0E911CE12CF12CE92FF0E0FAABE9AB88
:1018D00089A99AA90E2C02C0959587950A94E2F7DA
:1018E00080FD0BC0F50180819181A281B381F80157
:1018F00080839183A283B3833FC0FBA5F533E1F1DD
:10190000D11029C0D50158962D913D914D915C91F2
:101910005B97F40160817181828193810E94873994
:10192000D8012D913D914D915C910E948739F8012C
:101930006083718382839383F2E0EF16F104E1F414
:10194000A30192010E948739D8016D937D938D93F5
:101950009C93139711C0F5012081318142815381FD
:10196000D8016D917D918D919C910E948739F801EC
:101970006083718382839383FFEFEF1AFF0A24E071
:10198000A20EB11C0C5F1F4F34E0830E911C63E06C
:10199000E616F10409F09CCF70CF61ED71E087E0AD
:1019A0000E94642F882311F40C9463158F8D81118C
:1019B00003C019AA1BA22CC020E030E080E090E018
:1019C000AF8D4A2F50E0BA01082E02C07595679579
:1019D0000A94E2F760FD0EC0F901EF57FE4F808CCC
:1019E000918CA28CB38CF901EF53FE4F808A918ABF
:1019F000A28AB38A01962C5F3F4F8330910519F775
:101A000006C08091C201823010F00C94511519AAC1
:101A1000B091C201BBA7B03529F4EF8DE1110C9450
:101A2000531574C2FBA1F23009F070C22BA521112D
:101A300004C03F8D31116AC22BC020E030E0A90103
:101A40006091CD017091CE018091CF019091D00134
:101A50000E947C3A882311F40C9455156BA56C38C0
:101A600009F43EC240F46230A9F06330B1F0613055
:101A700009F04CC20AC08BA58E3809F431C208F4B3
:101A80002CC28F3809F429C241C29F8D91113EC2E8
:101A90001BA23CC2AFA1A460AFA3BF8DBB2309F4BE
:101AA000F1CDEFA90E2F10E039AD232F30E03EA786
:101AB0002DA781E090E07C0109AC02C0EE0CFF1C78
:101AC0000A94E2F702C0880F991FEA95E2F7E82A24
:101AD000F92A8B2F90E08E219F21892B09F4E7C7EB
:101AE000F801EE0FFF1FEE0FFF1FEF53FE4FD8015F
:101AF000AA0FBB1FAA0FBB1FA756BE4F2D913D912A
:101B00004D915C9166A577A580A991A90E9486391F
:101B10004B015C01EDA5FEA5EE0FFF1FEE0FFF1FB1
:101B2000EF53FE4FADA5BEA5AA0FBB1FAA0FBB1F4B
:101B3000A756BE4F2D913D914D915C9166A577A51D
:101B400080A991A90E9486396BAF7CAF8DAF9EAF03
:101B5000310160E86622772427FEEFC0E89427F879
:101B60004CE050E06FEE71E089E991E00E94493E5F
:101B7000892B11F481E2BBC78091C4018130B1F49B
:101B800023E333E34BEC51E46091E6017091E7010C
:101B90008091E8019091E9010E94DE3C6093E601AA
:101BA0007093E7018093E8019093E9014090E6018A
:101BB0005090E7016090E8017090E901A50194015F
:101BC000C501B4010E94DE3C27966CAF7DAF8EAF9D
:101BD0009FAF27972BAD3CAD4DAD5EADCA01B901AE
:101BE0000E94DE3C2B966CAF7DAF8EAF9FAF2B97E4
:101BF00020E030E040E850E4C301B2010E94DE3C46
:101C0000A30192010E94DE3C27962CAD3DAD4EAD66
:101C10005FAD27970E9486392B962CAD3DAD4EAD1A
:101C20005FAD2B970E9486396B017C0120E030E08C
:101C3000A9010E947C3A87FD3CC7C701B6010E94FA
:101C40007D3D6B017C012B962CAD3DAD4EAD5FAD66
:101C50002B9727966CAD7DAD8EAD9FAD27970E94DB
:101C600087390E947D3D9B01AC01C701B6019058A8
:101C70000E94863A6B017C018BA5833021F4F7FA30
:101C8000F094F7F8F09420E030E0A901C301B2012C
:101C90000E947C3A87FF0FC0F7FAF094F7F8F094AF
:101CA000D301C201B0588093E6019093E701A0935D
:101CB000E801B093E901000F111F000F111F0F522F
:101CC0001E4FA70196016BAD7CAD8DAD9EAD0E9400
:101CD000DE3C9B01AC01C501B4010E94863920E0C5
:101CE00030E040E05FE30E94DE3CD8016D937D93DD
:101CF0008D939C9313970DA51EA5000F111F000F28
:101D0000111F0F521E4FA7019601C501B4010E9479
:101D1000DE3C9B01AC016BAD7CAD8DAD9EAD0E94F8
:101D2000873920E030E040E05FE30E94DE3CF801CC
:101D30006083718382839383E9C0D12CEC20FD20E2
:101D4000EF2809F4B8C6F1EF2F228091C401813049
:101D500009F47CC0F801EE0FFF1FEE0FFF1FEF52DA
:101D6000FE4FC080D180E280F380A7019601C501BB
:101D7000B4010E9486392B013C01EDA5FEA5EE0FB2
:101D8000FF1FEE0FFF1FEF52FE4F80819181A28156
:101D9000B3818DA79EA7AFA7B8AB9C01AD016BAD7A
:101DA0007CAD8DAD9EAD0E9486394B015C01A301D7
:101DB0009201C301B2010E94DE3C2B013C01A5014E
:101DC0009401C501B4010E94DE3C9B01AC01C3013A
:101DD000B2010E9487390E947D3D4B015C01A70141
:101DE0009601C701B6010E94DE3C6B017C012DA566
:101DF0003EA54FA558A9CA01B9010E94DE3C9B012E
:101E0000AC01C701B6010E9487390E947D3D6B017C
:101E10007C016093E6017093E7018093E801909361
:101E2000E9019B01AC01C501B4010E9486394B0157
:101E30005C01E894B7F82AE037ED43EA5BE3C501BB
:101E4000B4010E949E3C18165CF160C091ECE92E32
:101E500091E0F92EC601062C02C0959587950A944B
:101E6000E2F780FF12C023E333E34BEC51E4D701E8
:101E700050966D917D918D919C9153970E94DE3C7F
:101E8000F701608B718B828B938BFFEF6F1A7F0A48
:101E900024E0E20EF11C33E063167104D9F65ACF48
:101EA00020E030E040E05FE3C501B4010E949E3CC9
:101EB00018160CF45FCE2FE632E143E85AE3C7016F
:101EC000B6010E94DE3C9B01AC01C501B4010E9439
:101ED0009E3C18160CF44ECE19C06FA160616FA322
:101EE0008BA58E58823018F48FA188608FA39F8DA8
:101EF000992309F4C7CB4CE050E06FEE71E089E91B
:101F000091E00E94493E892B09F434CE2FA1217023
:101F1000AFA1C101A0FF02C08E7D02C08E7D9C7F5B
:101F2000BBA1B111937E892B09F0C7C58E010F5F4C
:101F30001F4F8DE0F80111928A95E9F7222309F4E9
:101F400057C08DA99EA9867B892B09F0B8C58091C1
:101F5000C101853311F08111B2C580918C0190913E
:101F60008D01A0918E01B0918F018D839E83AF83EF
:101F7000B88790918A0180918901892B4091CD0188
:101F80005091CE016091CF017091D00149835A8365
:101F90006B837C83846089878091DE019091DF016F
:101FA000A091E001B091E1018A879B87AC87BD8752
:101FB0008091710185FF06C08FEE91E00E94E91DBE
:101FC00081117FC5B8018FEE91E00E94A701809139
:101FD0001A0181117AC50E940E28892B09F475C552
:101FE00080E280931A010E94852F0E943F186DC5E0
:101FF00080917101F0908A0181FF26C09BA59150CC
:10200000933018F0FFA1F064FFA32F8D222339F045
:102010003BA1323021F46FA160686FA315C080E14D
:10202000F81212C09091810191508FA18074933069
:1020300030F4882349F09FA190629FA305C08111CD
:1020400003C0AFA1A062AFA38091DE019091DF0138
:10205000A091E001B091E1018093950190939601E8
:10206000A0939701B09398018A879B87AC87BD871F
:102070008091C30180938201882311F088E08987D1
:102080008091CD019091CE01A091CF01B091D0016E
:102090008093900190939101A0939201B09393014A
:1020A00089839A83AB83BC838090EA019090EB0193
:1020B000A090EC01B090ED01A501940160918C011C
:1020C00070918D0180918E0190918F010E947C3AD8
:1020D000BFA1B074EB2E811103C0EFA1E5FF20C0BA
:1020E000FF2071F0FFA1F7FD0BC0EE2021F040E0D2
:1020F00050E0BA0102C0B501A4018F2D0E945C2CF2
:102100008091EA019091EB01A091EC01B091ED0179
:1021100080938C0190938D01A0938E01B0938F01D9
:10212000E1100CC080918C0190918D01A0918E01E5
:10213000B0918F018D839E83AF83B8878091EE012C
:10214000809394018091CB0190918A01981751F06E
:102150004D815E816F8178850E945C2C8091CB01DE
:1021600080938A01998580918A01892B8987809142
:10217000CA01909189019817D1F090911A0192307B
:1021800051F02F968FAF2F970E944B2C2F968FAD2B
:102190002F970E943B298091CA01811103C01092A0
:1021A000890105C090918901892B809389019985C6
:1021B00080918901892B8987F090CC0180918B01D6
:1021C0008F1551F0F0928B010E944B2C80911B01D6
:1021D000811102C0F09227018091C101843049F53C
:1021E0006091E2017091E3018091E4019091E50139
:1021F00020911A012230E9F02C966FAF2C972D9682
:102200007FAF2D972F968FAF2F972E969FAF2E973C
:102210000E944B2C40E02C966FAD2C972D967FADF5
:102220002D972F968FAD2F972E969FAD2E970E94AC
:102230006D228091C601809385018091C4018093B5
:1022400083012BA1233071F58091C7018093860112
:10225000811108C01092F7011092F8011092F90153
:102260001092FA01C090F701D090F801E090F901C6
:10227000F090FA01A70196016091BD017091BE0135
:102280008091BF019091C0010E947C3A882351F057
:10229000C092BD01D092BE01E092BF01F092C00198
:1022A0000E946C1E8091C80190918701981769F077
:1022B000809387018CE0FE013E96A5EAB1E0019093
:1022C0000D928A95E1F70E946C1E8091C501809362
:1022D00084018091C1018632F1F138F48C3109F129
:1022E0008E31F9F08A3069F04FC08C35D1F18636E5
:1022F00009F441C0883209F047C069E971E087E01C
:102300002DC061ED71E089A90E94D22D80918701D5
:1023100039A9831339C08CE0E1EDF1E0A5EAB1E021
:1023200025C08985816089876BA1662329F0B80162
:102330008FEE91E00E94A701B80181ED91E00E942B
:10234000A7018CE0E1EDF1E0A9E9B1E001900D9287
:102350008A95E1F719C069E971E086E00E94D22D03
:1023600013C08CE0EFEEF1E0A1EBB1E001900D9233
:102370008A95E1F707C08CE0E1EBF1E0DF011D9207
:102380008A95E9F70E946C1E8091C20180938101B9
:10239000803509F424C3BBA1B23009F020C38130D9
:1023A00021F4BE016F5F7F4F06C0811109C089858E
:1023B00081608987B8018FEE91E00E94A70106C372
:1023C0008250823008F09BC28091E6019091E70133
:1023D000A091E801B091E9018BA39CA3ADA3BEA39A
:1023E000AFA994E0A99F70011124F701E756FE4FB1
:1023F000FCA7EBA797012F523E4F3EAB2DABD90167
:102400004D905D906D907C9020813181428153810F
:10241000C301B2010E94873969AB7AAB8BAB9CAB2D
:10242000E9ADB4E0EB9F80011124980127563E4F9F
:1024300038AF2FABC8018F529E4F9AAF89AFDC01E6
:102440008D909D90AD90BC90F901208131814281A9
:102450005381C501B4010E9487396BAF7CAF8DAF4A
:102460009EAF77FA709477F87094D501C401B05894
:102470008F8F98A3A9A3BAA3F701E151FE4F29A911
:102480003AA94BA95CA960817181828193810E94E4
:1024900086396B017C01F801E151FE4F2BAD3CAD5B
:1024A0004DAD5EAD60817181828193810E948639DC
:1024B0004B015C01A7019601C301B2010E94DE3C01
:1024C0006DA77EA78FA798ABA50194016F8D78A10A
:1024D00089A19AA10E94DE3C9B01AC016DA57EA55D
:1024E0008FA598A90E9487396DA77EA78FA798AB63
:1024F000A5019401C301B2010E94DE3C4B015C01C5
:10250000A70196016F8D78A189A19AA10E94DE3C56
:102510009B01AC01C501B4010E9486392DA53EA5E1
:102520004FA558A90E94063A6B017C019FA192FF1A
:1025300013C02DEB37E346E055EBC701B6010E940F
:102540009E3C87FD1DC02BED3FE049EC50E4C701E8
:10255000B6010E94863912C02DEB37E346E055E301
:10256000C701B6010E947C3A181654F02BED3FE0EB
:1025700049EC50E4C701B6010E9487396B017C0128
:102580008090650190906601A0906701B09068010D
:102590002BA13CA14DA15EA1CA01B9010E948739BE
:1025A000A50194010E9486399B01AC01C501B401CB
:1025B0000E94DE3C0E947D3D4B015C0120E030E04A
:1025C00040E05FE3C701B6010E94DE3C2BA13CA1C5
:1025D0004DA15EA10E94DE3C9F77A50194010E945F
:1025E000863A0E946B3B0E94FF3A7EA76DA7DB01F3
:1025F000AB2B09F4D6CE19854B01A12CB12C13FFBE
:1026000012C0C501B4010E942E3B9B01AC0169813F
:102610007A818B819C810E94DE3C69837A838B83E3
:102620009C83177F1987C501B4010E942E3B4B0183
:102630005C019B01AC01C701B6010E94863A6FA301
:1026400078A789A79AA7EFADB4E0EB9FC00111244A
:102650008C0107561E4FFC01E151FE4FD8012D9110
:102660003D914D915C9160817181828193810E9445
:102670008639A50194010E94863A2B966CAF7DAFF6
:102680008EAF9FAF2B972FA138A549A55AA5CA0198
:10269000B9010E94DE3C9B01AC0160E070E080E08B
:1026A00090E40E9486396B017C012BEA3AEA4AE207
:1026B0005EE36FA178A589A59AA50E94DE3C4B0137
:1026C0005C0120E030E040E850E4C701B6010E9420
:1026D00087399B01AC01C501B4010E94DE3C239601
:1026E0006CAF7DAF8EAF9FAF239720E030E040E02E
:1026F0005FE3C701B6010E94DE3C27966CAF7DAF59
:102700008EAF9FAF27971BA222242394312CEDA5D7
:10271000FEA52E163F0609F444CEBBA1BC3008F03E
:1027200048C027962CAD3DAD4EAD5FAD27976F8D60
:1027300078A189A19AA10E94DE3C6B017C012396BD
:102740002CAD3DAD4EAD5FAD2397C301B2010E94EC
:10275000DE3CA70196010E9487397B016C01279618
:102760002CAD3DAD4EAD5FAD2797C301B2010E94C8
:10277000DE3C4B015C0123962CAD3DAD4EAD5FAD13
:1027800023976F8D78A189A19AA10E94DE3C9B01BD
:10279000AC01C501B4010E9486392B013C01EBA1BB
:1027A000EF5FEBA3470156018F8E98A2A9A2BAA2B0
:1027B00065C0B10180E090E00E942E3B2FA138A5BA
:1027C00049A55AA50E94DE3C6B017C010E94813A1A
:1027D0006F8F78A389A39AA3C701B6010E946F3DAA
:1027E0004B015C01ADA9BEA9CD90DD90ED90FC90B0
:1027F000F7FAF094F7F8F094A9ADBAAD8D919D91E8
:102800000D90BC91A02D8BA39CA3ADA3BEA32F8D37
:1028100038A149A15AA1C701B6010E94DE3C2B0193
:102820003C01A50194016BA17CA18DA19EA10E94F8
:10283000DE3C9B01AC01C301B2010E9487392B0130
:102840003C01A5019401C701B6010E94DE3C6B0169
:102850007C012F8D38A149A15AA16BA17CA18DA12A
:102860009EA10E94DE3C9B01AC01C701B6010E9403
:1028700086396F8F78A389A39AA31BA2A301920123
:1028800069A97AA98BA99CA90E948739EBA5FCA507
:1028900060837183828393832F8D38A149A15AA1CC
:1028A0006BAD7CAD8DAD9EAD0E948739AFA9B8AD43
:1028B0006D937D938D939C9313972B962CAD3DAD8B
:1028C0004EAD5FAD2B97F80160817181828193815C
:1028D0000E948739D8016D937D938D939C931397B4
:1028E000BE016F5F7F4F89E991E00E94A70180914F
:1028F0001B0181116BC0BFEF2B1A3B0A08CF8985E2
:102900008460898780911A01823009F45FC00E9437
:102910004B2C80911B01811162C0FFA1F071FF2E31
:1029200010921F012FA123FB882780F90E94BD1E52
:1029300086B1807290910001891749F084E00E946D
:10294000D01D0E94232A80E00E94BD1E48C0B8010D
:102950008FEE91E00E94A70181E08093190182E04F
:102960000E94E01D0E94232A80911B01811137C023
:1029700080911A018111F6CF80911901813081F483
:10298000FF2051F08CE0E1E0F1E0ADE0B1E001903A
:102990000D928A95E1F707C085E00E94D01D03C023
:1029A00081E080931F011092190180E00E94BD1EFA
:1029B0000E94232A0E94A2380E941E280E949E2262
:1029C0000E94DD2180911F0181118AC08CE0EFEE11
:1029D000F1E0A9E9B1E001900D928A95E1F78091CB
:1029E000C90180938801882309F481C00E944B2C7F
:1029F0008091880190911A01833041F49230E1F185
:102A000088E00E94E01D0E94232A36C081E0809366
:102A1000810110928501109284011092820110921E
:102A2000870110928A011092890110928B0184E62D
:102A3000809321018093220180932301923091F0B1
:102A400065EA71E080E00E94642F8823E1F10E9432
:102A50006C1E40E050E0BA0180E00E94F82980E05E
:102A60000E943B2983EA92E00E942E208AE392E0B2
:102A70000E942E200E94D821109288012FC081E050
:102A800036C082E034C088E132C086E230C089E1DD
:102A90002EC084E02CC08BE12AC085E228C084E1EE
:102AA00026C08EE124C08FE122C086E120C080E2F2
:102AB0001EC082E21CC083E21AC084E218C080E11A
:102AC00016C08FE014C087E012C08CE0EFEEF1E09A
:102AD000A9E9B1E001900D928A95E1F780E007C085
:102AE0000E94B72C7CCF1E8E1FA20C94C607C25B1F
:102AF000DF4F0FB6F894DEBF0FBECDBFDF91CF9191
:102B00001F910F91FF90EF90DF90CF90BF90AF900B
:102B10009F908F907F906F905F904F903F902F90FD
:102B2000089580915D01682F90E020915E01422F11
:102B300080FD94E0822F817020FD80E261FD98602D
:102B400041FD806462FD906142FD80689093430680
:102B50008093440608951F920F920FB60F9211248E
:102B60008F939F938BB1909143069C71837E892BA9
:102B70008BB915BC9F918F910F900FBE0F901F9036
:102B8000189580916F008D7F80936F0080918100F8
:102B9000887F8160809381001092450680915F015B
:102BA00090911A018F3F39F420914805211103C0FB
:102BB000903881F402C0943069F090E0009741F0C1
:102BC000EFE9FFE03197F1F700C000000197F6CF81
:102BD00081E001C080E09091710192FF02C091E01C
:102BE0008927882311F0289A0895289808951F921C
:102BF0000F920FB60F9211242F933F934F935F9331
:102C00006F937F938F939F93AF93BF93EF93FF93B4
:102C100080914506811122C28BB190915506907E1C
:102C20008F71892B8BB98BB1837E90915406892B40
:102C30008BB98091530686BD82E085BD81E080938B
:102C4000450678948091670690916806892B09F073
:102C5000BFC08091690690919406981709F4A4C0AA
:102C6000E09169062E2F30E087E0E89FF001112403
:102C7000E659F94FF0936806E093670682819381E5
:102C8000909389008093880080819181909363065E
:102C900080936206E481809164068E1761F1E0936F
:102CA000640682E1E89FF0011124E956F94FF093A0
:102CB0006606E093650684859585A685B785B695F5
:102CC000A7959795879580934E0690934F06A0936E
:102CD0005006B093510680934A0690934B06A093FA
:102CE0004C06B0934D068093460690934706A093FA
:102CF0004806B0934906A0916506B091660690918A
:102D0000440650968C91509789278093550687E00A
:102D1000829FF001839FF00D1124E659F94F258120
:102D20004D915D916D917C911397022E04C0769523
:102D30006795579547950A94D2F740935606509356
:102D40005706609358067093590614964D915D91FD
:102D50006D917C911797022E04C0769567955795D3
:102D600047950A94D2F740935A0650935B066093B6
:102D70005C0670935D0618968D919D910D90BC91A7
:102D8000A02D04C0B695A795979587952A95D2F75B
:102D900080935E0690935F06A0936006B0936106F1
:102DA00086810E94EA2914C00E94C115E09165063F
:102DB000F09166068189882339F01092B3008091E2
:102DC000B0008F778093B00084E00E94E01D46C180
:102DD000809119018130B1F486B180729091000127
:102DE000891781F0109219018CE0E1E0F1E0ADE08B
:102DF000B1E001900D928A95E1F7809147058064DA
:102E000080934705109254064091560650915706FC
:102E10006091580670915906809146069091470638
:102E2000A0914806B0914906840F951FA61FB71FB1
:102E30008093460690934706A0934806B0934906B0
:102E4000E0916506F091660644855585668577852F
:102E5000481759076A077B0768F524E02093540652
:102E60004485558566857785841B950BA60BB70B26
:102E70008093460690934706A0934806B093490670
:102E800020898091010190910201A0910301B091EC
:102E9000040125FF04C00197A109B10903C00196EF
:102EA000A11DB11D8093010190930201A093030124
:102EB000B093040140915A0650915B0660915C0604
:102EC00070915D0680914A0690914B06A0914C0648
:102ED000B0914D06840F951FA61FB71F80934A0619
:102EE00090934B06A0934C06B0934D0644855585B0
:102EF00066857785481759076A077B0778F520911B
:102F00005406286020935406448555856685778548
:102F1000841B950BA60BB70B80934A0690934B0628
:102F2000A0934C06B0934D062089809105019091A5
:102F30000601A0910701B091080126FF04C0019786
:102F4000A109B10903C00196A11DB11D809305011E
:102F500090930601A0930701B093080140915E068B
:102F600050915F06609160067091610680914E06F7
:102F700090914F06A0915006B0915106840F951F75
:102F8000A61FB71F80934E0690934F06A09350063E
:102F9000B09351064485558566857785481759074E
:102FA0006A077B0778F52091540620612093540628
:102FB0004485558566857785841B950BA60BB70BD5
:102FC00080934E0690934F06A0935006B0935106FF
:102FD00020898091090190910A01A0910B01B09183
:102FE0000C0127FF04C00197A109B10903C0019694
:102FF000A11DB11D8093090190930A01A0930B01BB
:10300000B0930C0180911A01843039F49091200121
:103010008091540689238093540680916206909192
:10302000630601979093630680936206892B69F487
:103030001092680610926706809169068F5F8093F0
:103040006906863011F410926906909143068091CA
:10305000540689278093540610924506FF91EF91FC
:10306000BF91AF919F918F917F916F915F914F91A0
:103070003F912F910F900FBE0F901F901895809148
:10308000710182FF02C0289A01C0289880914306EE
:103090008093540680915C01880F845081958093C1
:1030A000530680916F00826080936F0008953F9275
:1030B0004F925F926F927F928F929F92AF92BF9248
:1030C000CF92DF92EF92FF920F931F93CF93DF93F4
:1030D000CDB7DEB7A4970FB6F894DEBF0FBECDBF55
:1030E00010914805112391F181E080931A0189EA3A
:1030F00092E00E942E20812F0E9408200E943D20F5
:1031000085EF91E0019739F0EFE9FFE03197F1F7B2
:1031100000C00000F7CF1150123030F08FB7F89494
:10312000109248058FBF12C083EA92E00E942E20C1
:1031300081E992E00E942E200E94D82180E10E9425
:10314000D61D8091470584FFFCCFE8CF109147053D
:10315000112309F4F7C214FF04C081E080931B011E
:10316000F4C310FFE8C18CE0E1E0F1E0DE01599624
:1031700001900D928A95E1F7BE01675E7F4FCE0107
:103180000D960E94241E8CE30E941F2980911A0133
:103190008830E1F058F4813099F1A8F0823099F14B
:1031A000843009F043C089EF92E03EC0803229F1BB
:1031B00018F4803171F03AC0803441F18038B1F5B3
:1031C00081EE92E031C08CE093E02EC088E093E085
:1031D0002BC080911C0187FD10C082E093E00E940B
:1031E0002E2080911C0180FF06C080E31AC082FF60
:1031F00017C085FFFACF81E314C08EEF92E014C0B0
:1032000083EF92E011C08DEE92E00EC087EE92E067
:103210000E942E2080911C0183FFE9CF83E301C02F
:1032200082E30E941F2902C00E942E20809160012B
:10323000F82FF170BF2E80FD15C04090BD01509059
:10324000BE016090BF017090C00145EA842E41E04C
:10325000942E9E012F5F3F4F7901CE010D966C0198
:1032600000E02CC080912601882339F38AED92E09A
:103270003FC0A30192010E948739F70160837183E7
:1032800082839383B110F2CFF70120813181428193
:103290005381F60160817181828193810E94863918
:1032A000F60160837183828393830F5FF4E0EF0EF6
:1032B000F11C24E0C20ED11C0330B1F0F401619185
:1032C0007191819191914F0120853185428553857E
:1032D0000E948739F7016083718382839383023070
:1032E00041F2BB2089F2E1CFB110C0CF83ED92E073
:1032F0000E942E20CE010D960E948B1F80916001AE
:1033000081FF1FC08EEC92E00E942E2090912A0532
:103310008091FF01981710F0825F01C08150891BD6
:103320000E9408208CE20E941F298091FC0190914C
:10333000FB01981710F0805801C08150891B0E9432
:1033400008200E940E280097F9F0FC01C288D3885B
:10335000E488F588C114D104E104F104A9F089ECF2
:1033600092E00E942E20F7FE0BC08DE20E941F29E2
:1033700066277727CB016C197D098E099F0902C04A
:10338000C701B6010E94A81F84EC92E00E942E2083
:1033900080911A018C7749F060911507709116079A
:1033A000809117079091180703C060E070E0CB018F
:1033B0000E946D1F8CE20E941F296091280170916C
:1033C000290180912A0190912B0140E00E94CF1E9B
:1033D0000E943622F82E0E94711E082F86B1982F67
:1033E000907280910001E92EE8268F2D802B8E2986
:1033F00081F18FEB92E00E942E20EE2019F080E503
:103400000E941F29FF2079F0F0FE03C088E50E948A
:103410001F29F1FE03C089E50E941F29F2FE03C0A7
:103420008AE50E941F290023A1F000FF03C084E465
:103430000E941F2901FF03C082E50E941F2902FF8D
:1034400003C088E40E941F2903FF03C083E50E9494
:103450001F2980912601882321F081508093260125
:1034600018C080911A018C7711F08DE101C089E0BC
:103470008093260180912501811103C081E0809312
:10348000250189EB92E00E942E20CE0101960E9438
:103490008B1F00912501002321F00150009325018D
:1034A00042C080911A018C7711F083E101C089E05C
:1034B0008093250184EB92E00E942E2080912101CF
:1034C0000E9408208CE20E941F29809122010E9404
:1034D00008208CE20E941F29809123010E9408206D
:1034E0008091B00087FF05C02D9902C001E001C0A6
:1034F00002E0439B03C0FF24F39403C0002399F030
:10350000F12C80EB92E00E942E20002339F0013054
:1035100011F483E501C083E40E941F29FF2019F004
:1035200086E40E941F298EE30E941F290E943D20ED
:1035300081E00E94D61D812F887E09F47AC0809197
:103540001A01982F937009F063C08872A1F08091DE
:103550001C01807C81F40E94333782E080931E013D
:1035600080911A01803239F417FD05C080911C0149
:10357000806880931C0180911A01811103C091E041
:1035800090931C0116FF07C085FD05C090911C019A
:10359000906490931C0113FF05C0807E19F480E1B4
:1035A00080931A0115FF34C083EA92E00E942E2016
:1035B0008FE492E00E942E200E94D82180911C016D
:1035C00087FD21C090911A019034B1F483FF14C09B
:1035D00080911E0182FF0AC00E94333786E08093EB
:1035E0001E0180911C018E7F80931C0180911C0123
:1035F000837E826080931C0180911A01803819F0CB
:1036000080E480931A0180911C01806280931C01E8
:1036100017FF0CC080911A01813029F480911C01A0
:10362000856080931C0180E880931A0188EE0E94D7
:10363000D61D11FF44C0812F8876F1F580911A01C3
:10364000803471F480911C0185FD0AC084FF03C0A1
:1036500010921A0105C082FF03C0886080931C018C
:1036600080911A01882381F084FF26C090911C016B
:1036700090FF22C0803141F480912401882321F001
:1036800088608093240118C010921E010E940E28A9
:10369000892B71F080911C0186FD0AC010921C01DB
:1036A00088E080931A010E94852F0E943F1804C071
:1036B00010921C0110921A0182E00E94D61D12FF86
:1036C00041C080911A01807D90911C018823D9F01E
:1036D00080911D01811117C097FD15C00E943337DD
:1036E0008091FF018093FD010E94573780911E0158
:1036F00081FF05C090911C01916090931C01897F0E
:1037000080931E011CC097FF0AC010921E010E94E8
:103710001E280E94A2380E94B72C0E949E228091EF
:103720001C0185FF08C08F77816080931C0180E4B5
:1037300080931A0104C010921C0110921A0184E0B7
:103740000E94D61D90914905992309F4ABC08FB70B
:10375000F894109249058FBF4091210190FF02C05B
:1037600084E601C0842F91FD865F92FD8A5093FD0F
:103770008F5F94FD8150893C08F088EC8A3008F412
:103780008AE03091220195FF02C024E601C0232F78
:1037900096FD22E397FD29E1841303C0231709F462
:1037A00081C0809321012093220110922501109164
:1037B000FF0130902A0589E9D82E96E7E92E26E9FF
:1037C000F22E0EE736E3432E131509F457C0812E6F
:1037D000912C489CC001499C900D11249C012050C3
:1037E0003E4F5901C9010E94C022562E672E782EE5
:1037F000C92E2D2D3E2D4F2D502F0E949E3C181668
:103800004CF42D2D3E2D4F2D502F6D2D7E2D8F2DB7
:10381000902F08C0252D362D472D5C2D652D762D3A
:10382000872D9C2D0E94DE3CF501628F738F848F63
:10383000958F489CC001499C900D11249C012050FB
:103840003E4F7901F90186A097A0A0A4B1A4A501DB
:103850009401628D738D848D958D0E949E3C181607
:103860002CF4F701828E938EA48EB58E1F5F1F30CD
:1038700009F410E0D52C73010C2DA6CF8D2D9E2DB3
:10388000AF2DB02F8093430590934405A093450539
:10389000B09346050E9433378091FF018093FD016C
:1038A0000E94573790914A05992309F448C08FB771
:1038B000F89410924A058FBF2091230190FF02C017
:1038C00084E601C0822F91FD865F92FD8A5093FDB0
:1038D0008F5F94FD8150893C08F088EC8A3008F4B1
:1038E0008AE0821749F020911E01286020931E0172
:1038F000809323011092250180911A0195FF0DC03C
:10390000803159F420912401211102C022E003C02A
:1039100020FF03C0246020932401907C81F0882341
:1039200011F0887161F01091890116FF02C01F7BB0
:1039300001C01064812F0E943B291093890180915E
:103940001A018C7F11F00E94852FA4960FB6F8946F
:10395000DEBF0FBECDBFDF91CF911F910F91FF90C2
:10396000EF90DF90CF90BF90AF909F908F907F901F
:103970006F905F904F903F9008956F927F928F92DB
:103980009F92AF92BF92CF92DF92EF92FF920F93EE
:103990001F93CF93DF93EB018C015B018CE0A80EAA
:1039A000B11C89E9682E96E7792E26E9822E3EE73A
:1039B000932EC990D990E990F99020E030E0A901C8
:1039C000C701B6010E947C3A8823B9F0A70196018D
:1039D000F80160817181828193810E94863A6B0136
:1039E0007C01E894F7F8A7019601B301C4010E9495
:1039F0007C3A87FD02C0360147010C5F1F4FCA1594
:103A0000DB05B9F6B301C401DF91CF911F910F918E
:103A1000FF90EF90DF90CF90BF90AF909F908F90EE
:103A20007F906F9008954F925F926F927F92AF92C6
:103A3000BF92CF92DF92EF92FF920F931F93CF939B
:103A4000DF93EC018C015C018CE0A80EB11CC12C51
:103A5000D12C7601F80141905190619071908F01C5
:103A600020E030E0A901C301B2010E947C3A882322
:103A700071F0A3019201C301B2010E94DE3C9B01DF
:103A8000AC01C701B6010E9487396B017C010A15A0
:103A90001B0501F7C701B6010E947D3D2B013C01CA
:103AA0009B01AC0160E070E080E89FE30E94863AF1
:103AB0006B017C019B01AC01688179818A819B81CA
:103AC0000E94DE3C688379838A839B83A7019601E9
:103AD0006C817D818E819F810E94DE3C6C837D8321
:103AE0008E839F83A7019601688579858A859B854A
:103AF0000E94DE3C688779878A879B87C301B20171
:103B0000DF91CF911F910F91FF90EF90DF90CF90B9
:103B1000BF90AF907F906F905F904F900895CF933C
:103B2000DF93C1E3D7E08991882319F00E941F2910
:103B3000FACFDF91CF910895CF93DF9321E5829F54
:103B4000C0011124EC01DD5F40E550E0BE0181E3DE
:103B500097E00E941D2F892B69F4109231070E9473
:103B60004B2C40E550E061E377E0CE010E94852DCB
:103B700080E001C081E0DF91CF9108952FB7F894E4
:103B800090914A05892B80934A052FBF08952FB73E
:103B9000F89490914905892B809349052FBF08958A
:103BA0009FB7F894809348059FBF08952FB7F89466
:103BB0009091470580958923809347052FBF0895ED
:103BC0002FB7F89490914705892B809347052FBF15
:103BD0000895AF92BF92CF92DF92EF92FF920F9330
:103BE0001F93CF93DF93EC0100E511E05C018CE0C3
:103BF000A80EB11CC990D990E990F99020E030E06E
:103C0000A901C701B6010E949E3C18168CF0F8016C
:103C100021913191419151918F01C701B6010E94CB
:103C20007C3A87FD05C0CA15DB0521F780E001C09D
:103C300081E0DF91CF911F910F91FF90EF90DF9086
:103C4000CF90BF90AF900895AF92BF92CF92DF9286
:103C5000EF92FF920F931F93CF93DF9300D000D08A
:103C6000CDB7DEB75B012CE2E22E21E0F22E8C0113
:103C70006B018CE0C80ED11CF501619171918191AD
:103C800091915F01F70121913191419151917F0112
:103C900029833A834B835C830E94303B29813A819C
:103CA0004B815C810E94863AF80161937193819304
:103CB00091938F01AC14BD04F9F60F900F900F9003
:103CC0000F90DF91CF911F910F91FF90EF90DF90B8
:103CD000CF90BF90AF9008950E944B2C1092260178
:103CE000089526B1822F877071F021FB992790F9F2
:103CF00081E09827892F20FF82609111846022FD46
:103D000003C08860089580E008951F920F920FB657
:103D10000F9211242F933F934F935F936F937F9351
:103D20008F939F93AF93BF93EF93FF930E94711E66
:103D3000882391F081FF03C00E94BD2C0DC083FF3A
:103D400004C080914705826005C080FF05C0809156
:103D50004705806280934705FF91EF91BF91AF9136
:103D60009F918F917F916F915F914F913F912F9193
:103D70000F900FBE0F901F90189510920001909118
:103D8000710197FD03C090E290930001882331F008
:103D90009091000180E289278093000108958F921D
:103DA0009F92AF92BF92CF92DF92EF92FF920F93CA
:103DB0001F93CF93DF93CDB7DEB72D970FB6F8944F
:103DC000DEBF0FBECDBF6B017C01042F20E030E0D1
:103DD000A9010E947C3A87FF07C08DE20E941F293B
:103DE000F7FAF094F7F8F094102F123060F020E01A
:103DF00030E048EC52E4C701B6010E94DE3C6B01A2
:103E00007C011250F2CF00FF0AC020E030E040E217
:103E100051E4C701B6010E94DE3C6B017C0120E049
:103E200030E040E05FE3C701B6010E9487390E949D
:103E3000F83A10E03AE0832E912CA12CB12C6115B8
:103E400071058105910591F0EE24E394F12CEC0EBF
:103E5000FD1EE10EF11CA50194010E94123E605D61
:103E6000F7016083B901CA011F5FE9CF80E3101732
:103E700048F4E1E0F0E0EC0FFD1FE10FF11D80835D
:103E80001F5FF5CF101314C011E0100F80E3FE0187
:103E9000E00FF11D81830CC0101303C08EE20E945D
:103EA0001F29FE01E10FF11D80810E941F29115081
:103EB0001111F2CF2D960FB6F894DEBF0FBECDBF15
:103EC000DF91CF911F910F91FF90EF90DF90CF90F6
:103ED000BF90AF909F908F9008952091710120FF27
:103EE00008C02BE832E441E25DE30E94DE3C41E0A1
:103EF00001C040E00C94CF1E2091710120FF08C04A
:103F00002BE832E441E25DE30E94DE3C44E001C084
:103F100043E00C94CF1ECF93DF93EC01688179814D
:103F20008A819B810E947C1F8CE20E941F296C81E8
:103F30007D818E819F810E947C1F8CE20E941F29BF
:103F4000688579858A859B85DF91CF910C947C1F4C
:103F50008F929F92AF92BF92EF92FF921F93CF9357
:103F6000DF93CDB7DEB72A970FB6F894DEBF0FBE4A
:103F7000CDBF611571058105910591F480E32A9605
:103F80000FB6F894DEBF0FBECDBFDF91CF911F916A
:103F9000FF90EF90BF90AF909F908F900C941F294F
:103FA00030E04AE0842E912CA12CB12C11E0130FAB
:103FB000EE24E394F12CEC0EFD1EE30EF11CA501A2
:103FC00094010E94123EF7016083B901CA01312FAA
:103FD000611571058105910549F7112349F0FE012D
:103FE000E10FF11D8081805D0E941F291150F5CFE6
:103FF0002A960FB6F894DEBF0FBECDBFDF91CF91EA
:104000001F91FF90EF90BF90AF909F908F90089579
:10401000CF93DF93843630F06AE00E94F23DC0E334
:10402000C90F03C0C0E08A3030F06AE00E94F23D60
:10403000D0E3D90F01C0D0E0805D0E941F29DD23AD
:1040400019F08D2F0E941F29CC2329F08C2FDF918E
:10405000CF910C941F29DF91CF910895CF93DF93D7
:10406000FC018491EF012196882321F00E941F29F1
:10407000FE01F7CFDF91CF91089581E193E00C9499
:104080002E20CF93C82F8AE193E00E942E208C2F00
:104090000E940820CF910C943D20811104C081E240
:1040A00093E00C942E200C944120CF93DF93C0E03A
:1040B0008C2F0E949C1D81110EC0109231078EE33F
:1040C0000E941F290E948F1D8AE30E941F2987E0FA
:1040D0000E94412012C080913107882371F00E9414
:1040E0008C07D82F8EE30E941F290E948F1D8AE320
:1040F0000E941F298D2F0E944D20C13011F0C1E078
:10410000D7CFDF91CF910895CF92DF92EF92FF92B8
:104110001F93CF93DF931F92CDB7DEB7182F6A019D
:104120007B0184E229830E941F29812F0E9408209D
:104130008DE30E941F292981422FC701B6010E94E9
:10414000CF1E0F90DF91CF911F91FF90EF90DF90E6
:10415000CF900C943D201F93CF93DF931F92CDB748
:10416000DEB7182F84E269830E941F29812F0E94E5
:1041700008208DE30E941F296981862F0E94082054
:104180000F90DF91CF911F910C943D20EF92FF9201
:104190000F931F93CF93DF9360915C0170E080E0F9
:1041A0000E94AB2060915F0170E081E00E94AB2033
:1041B00060915D0170E082E00E94AB2060915E0141
:1041C00070E083E00E94AB206091710162FB662782
:1041D00060F970E084E00E94AB206091710166FBA1
:1041E000662760F970E085E00E94AB208091710144
:1041F000992787FD9095692F661F6627661F70E0D7
:1042000086E00E94AB206091600170E08AE00E942D
:10421000AB20409161015091620160916301709106
:10422000640123E08BE00E9484204091650150915D
:104230006601609167017091680123E08CE00E9443
:10424000842060917101617070E08DE00E94AB206C
:104250006091710165FB662760F970E084E10E945E
:10426000AB206091710163FB662760F970E085E126
:104270000E94AB20609171016295617070E086E1EF
:104280000E94AB206091720170E087E10E94AB2038
:1042900040917301509174016091750170917601A4
:1042A00023E088E10E9484204091770150917801B9
:1042B0006091790170917A0123E089E10E94842064
:1042C00060917B0170917C018AE10E94AB2040915A
:1042D0007D0150917E0160917F017091800123E00A
:1042E0008BE10E9484204091690150916A016091A4
:1042F0006B0170916C0120E08EE10E94842040915E
:104300006D0150916E0160916F017091700120E01C
:104310008FE10E948420609171016695617070E068
:1043200080E20E94AB20D4E6F12C0CE211E083E0A5
:10433000E82EED0ECD2F82E0F81691F0E3E0FE16A8
:10434000E9F0F1E0FF1631F0F8014081518162811E
:1043500073811AC0F801448555856685778514C038
:1043600020E030E041E655E4F801608D718D828DEA
:10437000938D0E94863AAB01BC0106C0F80144A1AE
:1043800055A166A177A1705823E08C2F0E9484204C
:104390000C5F1F4FCF5FCE11CECFD65FF394DC38CA
:1043A00021F6DF91CF911F910F91FF90EF9008952B
:1043B0008DE50E941F290C943D20CF93DF93CDB74C
:1043C000DEB72C970FB6F894DEBF0FBECDBF84E1E9
:1043D00093E00E942E206DE071E0CE0101960E94D4
:1043E000241ECE0101960E948B1F8AE30E941F2982
:1043F00080911F010E9408200E94D8212C960FB6A0
:10440000F894DEBF0FBECDBFDF91CF9108951F920C
:104410000F920FB60F9211242F933F934F935F93F8
:104420006F937F938F939F93AF93BF93EF93FF937C
:1044300080911A01813049F080914805811105C0B1
:104440000E94BD2C81E00E94D01DFF91EF91BF9191
:10445000AF919F918F917F916F915F914F913F911C
:104460002F910F900FBE0F901F90189593B19671DA
:104470008091710186FD02C086E19827992349F059
:1044800091FB882780F992FD8260907119F0846019
:10449000089580E00895EBE6F0E08081897E8083D6
:1044A000E8E6F0E080818E7F8083089584B1897E84
:1044B00084B985B1866185B98091710183FF0BC094
:1044C00080916B00866180936B00809168008160B1
:1044D0008093680008950C944B220F931F93CF9301
:1044E000C42F20E030E040EA51E40E94DE3C0E940C
:1044F000653A0E94FF3A8B0101151105D9F08091B0
:104500001B01811117C0C11103C00E94232A06C0DC
:104510000E94571880911C0181FD0CC02FEF80E78D
:1045200092E0215080409040E1F700C0000001502F
:104530001109E2CFCF911F910F910895EBE2F5E0C1
:10454000A1E0B1E04D915D916D917C911397408315
:1045500051836283738314964D915D916D917C912B
:104560001797448355836683778318968D919D9121
:104570000D90BC91A02D80879187A287B387089565
:10458000BF92CF92DF92EF92FF920F931F93CF9340
:10459000DF937C01FC0106A517A5D0A9C1A98189DB
:1045A00080FF18C06091220170E080E090E00E94DE
:1045B000303B2AE037ED43E25CE30E94DE3C9B01A6
:1045C000AC01B8018D2F9C2F0E94DE3C8B01D82FAF
:1045D000C92F2DC082FD17C06091210170E080E0DD
:1045E00090E00E94303B2AE037ED43E25CE30E941A
:1045F000DE3C9B01AC01B8018D2F9C2F0E94DE3C5C
:104600008B01D82FC92FF701B2A4C3A4D4A4F5A459
:104610002B2D3C2D4D2D5F2DB8018D2F9C2F0E94F1
:104620009E3C181624F40B2D1C2DDD2DCF2D20E0E3
:1046300030E040E85FE3B8018D2F9C2F0E949E3C44
:10464000181624F000E010E0D0E8CFE3B8018D2F79
:104650009C2FDF91CF911F910F91FF90EF90DF90F2
:10466000CF90BF9008952F923F924F925F926F929A
:104670007F928F929F92AF92BF92CF92DF92EF92F2
:10468000FF920F931F93CF93DF93CDB7DEB7CA543A
:10469000D1090FB6F894DEBF0FBECDBF4B01A0907D
:1046A0002A052A2C312C26E3229DA001239D500DA2
:1046B0001124BA0160507E4F7EAB6DABFB011192AD
:1046C0002A95E9F7F4012085FB01218BF40144814F
:1046D000558166817781EDA9FEA942AB53AB64ABEE
:1046E00075ABF4014185528563857485EDA9FEA9FA
:1046F000428B538B648B758B21FF42C02CE0E1E031
:10470000F1E0DE01599601900D922A95E1F78BAB0D
:104710009CAB2CE231E021963FAF2EAF2197BE013A
:104720006B5D7F4F7EAF6DAFCE0149969AAF89AF7B
:10473000FE013D96FCAFEBAF66E3A69E900111240F
:1047400027963FAF2EAF2797F8AFEFAB00E010E012
:10475000B12C86E3829D9001839D300D1124C90107
:1047600080509E4FFC013C962396FFAFEEAF2397FF
:104770009C01205F3F4F25963FAF2EAF259743C04A
:104780002CE0EBE2F5E0BDCF2796EEADFFAD27972D
:10479000E00FF11FE050FE4FC082D182E282F3822F
:1047A0002396EEADFFAD2397208131814281538165
:1047B000C216D306E406F50610F469017A012396C1
:1047C000EEADFFAD2397C082D182E282F3820E94D8
:1047D000303BA30192010E94863AEFA9F8AD6193A4
:1047E000719381939193F8AFEFAB20E030E0A90192
:1047F0000E947C3A87FD41C0B3940C5F1F4F0C3080
:10480000110509F44CC0EBA9FCA96191719181914A
:104810009191FCABEBAB2196EEADFFAD21974190B2
:104820005190619071902196FFAFEEAF2197A30157
:1048300092010E94DE3C0E94AB3CEDADFEAD619367
:10484000719381939193FEAFEDAFE9ADFAADC19055
:10485000D190E190F190FAAFE9AF6C197D098E0922
:104860009F096B017C0197FF8FCFCC24DD2476015B
:10487000C61AD70AE80AF90A87CFBB2029F0F1E067
:10488000BF1621F090E803C090E201C090E42596A5
:10489000EEADFFAD25978081892B8083ADCFCD28EC
:1048A000CE28CF2809F4A3C1CE010D960E94131D76
:1048B0009B01AC0186E3829D8001839D100D112434
:1048C00000501E4FF80122A333A344A355A3BE01F9
:1048D000635F7F4F84E491E028962FAF2897299655
:1048E0003FAF29972A964FAF2A972B965FAF2B970A
:1048F0000E94BD1CF801668F778F80A391A3BE0133
:10490000635F7F4F88E391E00E94BD1CF80162A7BE
:1049100073A784A795A7F18828962FAD2897299685
:104920003FAD29972A964FAD2A972B965FAD2B97CF
:10493000F0FC09C0F4016081718182819381F3FCF4
:104940000E94DE3CF80166A777A780AB91AB80910F
:10495000FF01A81611F0F1FE0DC086E3829DF00163
:10496000839DF00D1124E050FE4F168A178A108E99
:10497000118E54C027E335E03CAB2BAB8E010F5FAB
:104980001F4FBE01675E7F4F7AAB69ABC12CD12C44
:1049900076010FAB19AFEBA9FCA981909190A19082
:1049A000B190FCABEBABEBADFCAD419051906190A5
:1049B0007190FCAFEBAFA3019201C501B4010E945D
:1049C000DE3C9B01AC01C701B6010E9486396B0138
:1049D0007C01A5019401C301B2010E948639F8014E
:1049E00061937193819391938F012BAD3CAD69A934
:1049F0007AA92617370779F62FEE3FEF4FE75FE3E7
:104A0000C701B6010E949E3C18166CF486E3829D95
:104A1000F001839DF00D1124E050FE4F16A217A265
:104A200010A611A671C02FEE3FEF4FE75FEBC70155
:104A3000B6010E947C3A87FF11C086E3829DF00197
:104A4000839DF00D1124E050FE4F89E996E7A6E919
:104A5000BEE786A397A3A0A7B1A756C08FA999AD1B
:104A60000E94131D6FA979AD84E491E00E94BD1CE2
:104A70004B015C01A701960160E070E080E89FE3D4
:104A80000E94863920E030E040E05FE30E94DE3C97
:104A90000E947D3D6B017C0120916101309162019A
:104AA0004091630150916401C501B4010E94DE3C54
:104AB000A70196010E94DE3C4B015C01A701960113
:104AC00060E070E080E89FE30E9486399B01AC01C2
:104AD000C501B4010E94863A6B017C0120E030E000
:104AE000A9010E947C3A87FF03C0C12CD12C76011A
:104AF00086E3829DF001839DF00D1124E050FE4F6E
:104B0000C6A2D7A2E0A6F1A686E3829D8001839D7E
:104B1000100D112400501E4FF801818981FD69C0DC
:104B20008DA99EA90E94C0226B017C018090430543
:104B300090904405A0904505B0904605A5019401CC
:104B40000E949E3C18162CF4A5019401C501B401E5
:104B500004C0A7019601C701B6010E94DE3CF8011E
:104B6000628F738F848F958F86E3829D8001839DF2
:104B7000100D112400501E4FF80186A097A0A0A48C
:104B8000B1A4A5019401628D738D848D958D0E94D1
:104B90009E3C18162CF4F801828E938EA48EB58E4E
:104BA000C0924305D0924405E0924505F092460537
:104BB0008CE0FE013D96A7E3B5E001900D928A9549
:104BC000E1F78CE0FE01B596ABE2B5E001900D9205
:104BD0008A95E1F78091FE0180932A058F5F8F30DF
:104BE00009F480E08093FE010E94573702C080E004
:104BF00001C081E0C65BDF4F0FB6F894DEBF0FBE89
:104C0000CDBFDF91CF911F910F91FF90EF90DF907B
:104C1000CF90BF90AF909F908F907F906F905F905C
:104C20004F903F902F9008952F923F924F925F9216
:104C30006F927F928F929F92AF92BF92CF92DF92AC
:104C4000EF92FF920F931F93CF93DF93CDB7DEB711
:104C5000A5970FB6F894DEBF0FBECDBF90911B0194
:104C60009111C3C18BA39E012F5F3F4F3E8F2D8FAC
:104C70008DE0D9011D928A95E9F786E0898720E5C4
:104C8000A22E21E0B22EFE017A964F0100E010E044
:104C9000C12CD12C76013BA1232F30E03AA329A3CC
:104CA000902F0115110521F0013021F080E103C0A2
:104CB00084E001C088E0D4018D934D01E9A1FAA1FF
:104CC00002C0F595E7959A95E2F7E0FF17C020E05E
:104CD00030E040EC5FEBD5016D917D918D919C9121
:104CE0000E94DE3C1B012C019B01AC01C701B601F7
:104CF0000E949E3C181614F0610172010F5F1F4F55
:104D0000B4E0AB0EB11C0330110551F620907701D1
:104D1000309078014090790150907A0194E0A92E6A
:104D2000BB24B39461E071E0CE010E960E94241E74
:104D300080917201E82FF0E0FDA3ECA3FE013E9606
:104D400021E031E038A32F8F890120E030E060E0DE
:104D500090E03601470197FA909497F8909449A112
:104D60005AA1022E02C0559547950A94E2F740FFDA
:104D700027C06F5FD8011D921D921D921C92139740
:104D80004CA15DA1022E02C0559547950A94E2F709
:104D900040FF03C0BB2019F007C0BB2029F0C08230
:104DA000D182E282F38204C0608271828282938225
:104DB000AAE1B0E0AC0FBD1FA20FB31F8C91982BDE
:104DC0002F5F3F4F34960C5F1F4F2330310539F66C
:104DD000192F70E080E090E00E942E3B0E947D3D04
:104DE0009B01AC0110932001C201B1010E94DE3C85
:104DF00069837A838B839C83BE016F5F7F4FCE0173
:104E00000E960E943323B4E0B0931E010E94852FBA
:104E10000E943F18BB20E9F00E943622FE017A96DC
:104E200020E030E090E06191462F412359F0AC0141
:104E3000022E02C0559547950A94E2F740FF02C042
:104E4000609516232F5F3F4F2330310561F7109394
:104E500020010E94852F80914705847339F11091BC
:104E6000470514FF03C086E00E94D01D15FF03C054
:104E700087E00E94D01DB11007C00E943622EBA12E
:104E80008E2339F088E003C012FF03C089E00E943E
:104E9000D01D80914805882329F00E94BD2C0E94D6
:104EA000232AA3C084E00E94D61D04C0812F8C71E8
:104EB00009F0B0CF0E94A23800917B0110917C01D3
:104EC0000115110549F08FE99FE00197F1F700C046
:104ED000000001501109F4CF91E0B926C9F020E09B
:104EE00030E040EA50E460917D0170917E01809154
:104EF0007F01909180010E94DE3C6B017C0120903B
:104F0000730130907401409075015090760110C08B
:104F1000C0907D01D0907E01E0907F01F0908001F3
:104F200020907701309078014090790150907A017B
:104F3000AA94A110F7CEC0907201D12C80907D016F
:104F400090907E01A0907F01B090800124013501F6
:104F500077FA709477F870948CE2E82E81E0F82E5E
:104F600089A19AA1002E02C0959587950A94E2F72F
:104F700080FF2AC0C601002E02C0959587950A942D
:104F8000E2F7D70180FF10C094962D913D914D918D
:104F90005C919797C501B4010E948739F701208180
:104FA00031814281538106C02D913D914D915C919B
:104FB000C301B2010E94DE3C0E94AB3CEF8DF8A120
:104FC00060837183828393830F5F1F4F2F8D38A17E
:104FD0002C5F3F4F38A32F8F34E0E30EF11C0330DA
:104FE000110509F0BDCF10921E01A5960FB6F894D9
:104FF000DEBF0FBECDBFDF91CF911F910F91FF900C
:10500000EF90DF90CF90BF90AF909F908F907F9068
:105010006F905F904F903F902F9008958091FF0187
:1050200090912A05981739F026E3829FC001112438
:1050300080509E4F089580E090E008958CE1EBE26F
:10504000F5E0DF011D928A95E9F71092FF011092B9
:105050002A0581E08093FE011092FD0108952091C0
:105060001B012111B9C00E94332390911E01882396
:1050700009F4ADC09E7F946090931E018091F2066A
:1050800081FF34C09091F106909303074091F70699
:105090005091F8066091F9067091FA064093040762
:1050A0005093050760930607709307074091F30636
:1050B0005091F4066091F5067091F60640930C0746
:1050C00050930D0760930E0770930F074091FB06F6
:1050D0005091FC066091FD067091FE064093080712
:1050E0005093090760930A0770930B078E7F8460C3
:1050F0008093F20610922F0710922E070E94852FA0
:105100000E943F180E94571880911B01811164C0B2
:1051100080911E0182FDF6CF8091F20681FF50C082
:105120002091030732E1239FC00111248956994F32
:1051300090939606809395062093F106809104073C
:1051400090910507A0910607B09107078093F70695
:105150009093F806A093F906B093FA0680910C0795
:1051600090910D07A0910E07B0910F078093F30661
:105170009093F406A093F506B093F60620910807E5
:105180003091090740910A0750910B072093FB06C5
:105190003093FC064093FD065093FE0683E0809317
:1051A000F20660E070E080EA9FE30E94863A609336
:1051B000FF0670930007809301079093020702C0D7
:1051C0001092F20610922F0710922E0708959B7FDF
:1051D00090931E010C94571808950E940E28892B55
:1051E00019F082E00C94E01D08951F920F920FB603
:1051F0000F9211248F939F93EF93FF938091420618
:10520000E82FF0E0EF52FA4F90819093C6008F5F45
:10521000813709F480E0809342069091D00589138C
:1052200005C08091C1008F7D8093C100FF91EF91F7
:105230009F918F910F900FBE0F901F901895E09146
:10524000D00591E09E0F913731F490E004C0209199
:10525000470524FD0FC0209142069217C1F3F0E0EC
:10526000EF52FA4F80839093D0058091C100806205
:105270008093C100089590911B01911108C0811184
:1052800002C0439802C086FD439A109225010895FA
:105290004F925F926F927F928F929F92AF92BF9246
:1052A000CF92DF92EF92FF92CF936B017C01C0917E
:1052B000230180906D0190906E01A0906F01B090DD
:1052C00070014090690150906A0160906B0170908C
:1052D0006C01A3019201C501B4010E949E3C87FFAD
:1052E0001AC06C2F70E080E090E00E94303B2AE012
:1052F00037ED43E25CE30E94DE3C9B01AC01C70159
:10530000B6010E94DE3C6B017C01A30192010E9468
:105310009E3C87FD0AC0409228015092290160926C
:105320002A0170922B018FEF47C0A5019401C7019C
:10533000B6010E947C3A1816E4F020E030E0A901A2
:10534000C701B6010E947C3A811109C01092280160
:105350001092290110922A0110922B012DC08092E7
:10536000280190922901A0922A01B0922B0185E098
:1053700023C0C0922801D0922901E0922A01F09224
:105380002B01A5019401C701B6010E948639209125
:10539000CC053091CD054091CE055091CF050E94AE
:1053A000DE3C0E946B3B20E030E040EA50E40E948B
:1053B00087390E94FF3A862FCF91FF90EF90DF90C0
:1053C000CF90BF90AF909F908F907F906F905F90A5
:1053D0004F9008958093B300811104C08091B00074
:1053E0008F7703C08091B00080688093B0000895EB
:1053F00090911B01911126C081110EC010922801BD
:105400001092290110922A0110922B018091B00074
:105410008F778093B00014C0803111F42D9801C0B3
:105420002D9A9091710191FF05C0803219F440E0EE
:1054300050E0BA01CB01BA010E9448290E94EA2932
:105440001092250108952F923F924F925F926F9292
:105450007F928F929F92AF92BF92CF92DF92EF9204
:10546000FF920F931F93CF93DF93CDB7DEB7A7972C
:105470000FB6F894DEBF0FBECDBF0E9457188091C3
:105480001C01882309F4EEC1CE0101961C018DE0B8
:10549000D1011D928A95E9F786E089870E940E283E
:1054A000009771F40091890180918A01082B809006
:1054B0008C0190908D01A0908E01B0908F0106C05C
:1054C000FC01018982A893A8A4A8B5A880917101C4
:1054D00081FF03C080E20E94BE1DC12CD12C90EA46
:1054E000E92E90E4F92E102F1073F02FF07FFEA319
:1054F00000740FA380911C01882309F4B3C190911B
:105500001B019111AFC180FFAAC190911A01292FEF
:10551000207C09F459C182FDA7C01092240161E0EA
:1055200071E0CE010E960E94241E80911C0181FD27
:1055300021C0FE013E96DE015A968CE001900D924C
:105540008A95E1F72AA13BA14CA15DA1C701B60153
:105550000E9487396B017C0120E030E040EA50EC8A
:105560000E947C3A87FD06C0C12CD12C80EAE82E2F
:1055700080ECF82E0091710104FF66C04E885F88B0
:10558000688C798C20E030E040EA50ECC301B20135
:105590000E947C3A87FF58C001FD56C080912701C8
:1055A000811152C0A7019601C301B2010E947C3A49
:1055B00087FF19C0CE8ADF8AE88EF98E80E090E0FE
:1055C000A8ECB2E489839A83AB83BC8389859EA1CE
:1055D000892B89878D829E82AF82B886B101CE01E8
:1055E0000E960E942F28A6E0A9871D821E821F8288
:1055F000188640E050E0BA0180E00E94F82980E07F
:105600000E943B2920E030E040EA50EC6E897F891F
:10561000888D998D0E947C3A87FF1FC080E090E0C2
:10562000A0EAB0EC8E8B9F8BA88FB98F80E090E0C2
:10563000AAEFB3E489839A83AB83BC83B101CE0123
:105640000E960E942F2809C040E050E0BA0180E089
:105650000E94F82980E00E943B2980911C018D7FE7
:10566000846080931C01FBC09038E1F483EA92E0EF
:105670000E942E208CE092E00E942E200E94D821D1
:1056800040E050E0BA0180E00E94F82980E00E94EA
:105690003B290E94C11580911B018111E3C00E942A
:1056A0005718F9CF903449F40E94711E80FD05C04F
:1056B00080911C018F7D80931C0180911C0183FFD0
:1056C000CEC0809171018271803109F580912701EE
:1056D00081111DC020E030E040EA50EC6E897F89E6
:1056E000888D998D0E947C3A18168CF0CE8ADF8ABC
:1056F000E88EF98E80E090E0AAEFB3E489839A8384
:10570000AB83BC83B101CE010E960E942F288091FD
:105710008A018823D1F080911C0181FD16C08091FF
:10572000710181FF06C080911E01886080931E0177
:105730000CC0B501A401812F0E94F82941E060E06E
:1057400070E080E890E40E946D22809189018823B6
:1057500071F080911C0181FD0AC08FA10E943B293C
:1057600041E060E070E080E89FE30E946D2280915C
:10577000710182718031E9F480912701811119C092
:1057800080911C0181FD15C080E090E0A8ECB2E49E
:1057900089839A83AB83BC8389859EA1892B898762
:1057A0008D829E82AF82B886B101CE014A960E9458
:1057B0002F2880911C0181FD52C0806180931C01C3
:1057C00082E00E94E01D4BC0809124018823C9F132
:1057D00081FF0EC080918A01882381F140E050E072
:1057E000BA0180E00E94F829A1E0A093240137C00B
:1057F0008C70A9F180918A018823C9F083EA92E034
:105800000E942E2085E192E00E942E200E94D82145
:105810008091710181FF06C080911E018860809394
:105820001E0105C0B501A401812F0E94F8298091B5
:10583000240183FF03C082E00E94E01D1092240136
:105840000EC080911E0183FF0AC0B501A401812F03
:105850000E94F82980911E01877F80931E010E947B
:10586000571848CEA7960FB6F894DEBF0FBECDBF2F
:10587000DF91CF911F910F91FF90EF90DF90CF902C
:10588000BF90AF909F908F907F906F905F904F9060
:105890003F902F9008950E94ED280E94232A809126
:1058A0001B01811108C00E940E28892BB1F780913D
:1058B0001A01883091F30895CF93DF9300D000D080
:1058C0001F92CDB7DEB790911A019230A9F04A83AA
:1058D0005B836C837D8389830E944B2C4A815B812F
:1058E0006C817D8189810F900F900F900F900F90A8
:1058F000DF91CF910C94F8290F900F900F900F909B
:105900000F90DF91CF910895CF93DF93239AC0EB4F
:10591000D0E083E0888384E08093B100259A2091D1
:105920006D0130916E0140916F0150917001609155
:10593000690170916A0180916B0190916C010E94E4
:1059400086399B01AC0160E070E08AE793E40E9435
:10595000863A6093CC057093CD058093CE059093E5
:10596000CF0588818F778883DF91CF91089561E09B
:1059700071E089E991E00C94241E8091470584FD33
:105980001FC080E10E94E01D8091B0008F7780935E
:10599000B000439890911A01892F8C7221F4809164
:1059A0001E01867069F0943031F4809148058111B0
:1059B00005C086E001C083E00E94D01D0C94C11593
:1059C00008951F920F920FB60F9211242F933F93B9
:1059D0004F935F936F937F938F939F93AF93BF93F7
:1059E000EF93FF93E091C600E13271F028F4E831C3
:1059F00079F40E94BD2C56C0EF3321F0EE3741F40C
:105A000082E003C081E001C088E00E94E01D4AC03E
:105A1000E7FF37C08E2F90E0FC01E458F109ED312B
:105A2000F10508F03FC0E659FF4F0C94343E80E288
:105A3000ECCF80911A0185FF35C080E4E6CF81E08C
:105A40000DC082E00BC084E009C088E007C080E19F
:105A500005C080E203C080E401C080E80E94C71D49
:105A600021C081E00BC082E009C084E007C088E06B
:105A700005C080E103C080E201C080E40E94BE1D39
:105A800011C0A091FB0181E08A0F813809F480E008
:105A90009091FC01891731F0B0E0A55BBA4FEC930F
:105AA0008093FB01FF91EF91BF91AF919F918F91F7
:105AB0007F916F915F914F913F912F910F900FBE0A
:105AC0000F901F901895F894F999FECF92BD81BD63
:105AD00081E08FBB80B58627482F552747FD50951D
