:100000000C9420040C943D040C943D040C94E428BE
:100010000C9487320C943D040C943D040C943D04E4
:100020000C943D040C943D040C943D040C94C416B3
:100030000C943D040C943D040C943D040C943D043C
:100040000C94DD180C943D040C94F2140C94B4142C
:100050000C943D040C943D040C943D040C943D041C
:100060000C943D040C943D04B00BAE13AE13BA0BCC
:10007000C70BD40BE10BAE13E50BAE13F30BAE13B2
:10008000FD0B070C380CAE13AE13AE13110C1E0C87
:100090002B0C4B125C128B125C128F12A212951257
:1000A0009B12B712C512DC12FF1231134313571300
:1000B0006913532259225C225F2264226C22762229
:1000C000EA22EA22EA227E2281228A2293229B22AB
:1000D000EA22EA22EA22EA22EA22A322AD22B92275
:1000E000C122C422CD22D622DC228B2D8E2D932D2F
:1000F000962D992D9C2D9F2DA22DA52DA82DAB2D94
:10010000B72DB72DB72DB72DB72DB72DB72DB72DCF
:10011000B12DAE2DB42D6D30703073307630793016
:100120007C307F3082308530084AD73B3BCE016E31
:1001300084BCBFFDC12F3D6C74319ABD56833DDA3E
:100140003D00C77F11BED9E4BB4C3E916BAAAABE4D
:10015000000000803F05A84CCDB2D44EB93836A976
:10016000020C50B9918688083CA6AAAA2ABE0000B3
:1001700000803F003E0D0A002C463A002C4C6E3A9F
:10018000002C52583A002C4275663A002C002C572D
:10019000506F733A002C002C4D506F733A003C4363
:1001A0006865636B003C416C61726D003C486F6D2B
:1001B00065003C486F6C64003C52756E003C5175A4
:1001C000657565003C49646C65005D0D0A005B3037
:1001D0002E39672E32303134303930353A000D0A3D
:1001E000003D00244E005D0D0A0020530020460013
:1001F000205400204D3800204D3900204D3500207E
:100200004D3400204D3300204D3200204D31002070
:100210004D3000204739340020473933002047391A
:10022000310020473930002047323000204732313A
:10023000002047313900204731380020473137004E
:10024000204700473830004733382E3500473338D1
:100250002E34004733382E33004733382E320047D0
:1002600033004732004731004730005B005D0D0A24
:10027000005B544C4F3A005D0D0A002C005B47397F
:10028000323A005D0D0A002C003A0033300032385B
:10029000005B47005D0D0A003A002C005B505242A3
:1002A0003A00290D0A00206D61782074726176652C
:1002B0006C2C206D6D0020616363656C2C206D6D6E
:1002C0002F7365635E3200206D6178207261746502
:1002D0002C206D6D2F6D696E002C20737465702F4E
:1002E0006D6D007A00790078002028003D00240020
:1002F0002028686F6D696E672070756C6C2D6F6655
:10030000662C206D6D290D0A002028686F6D696EBE
:1003100067206465626F756E63652C206D7365631D
:10032000290D0A2432373D002028686F6D696E67F9
:10033000207365656B2C206D6D2F6D696E290D0A1C
:100340002432363D002028686F6D696E672066652F
:1003500065642C206D6D2F6D696E290D0A24323570
:100360003D00290D0A2432343D002028686F6D6954
:100370006E672064697220696E76657274206D61A3
:10038000736B3A002028686F6D696E67206379632C
:100390006C652C20626F6F6C290D0A2432333D008E
:1003A000202868617264206C696D6974732C206206
:1003B0006F6F6C290D0A2432323D002028736F665E
:1003C00074206C696D6974732C20626F6F6C290DD9
:1003D0000A2432313D0020286175746F20737461E6
:1003E00072742C20626F6F6C290D0A2432303D002C
:1003F00020287265706F727420696E636865732C53
:1004000020626F6F6C290D0A2431343D0020286171
:10041000726320746F6C6572616E63652C206D6D04
:10042000290D0A2431333D0020286A756E637469F2
:100430006F6E20646576696174696F6E2C206D6DD6
:10044000290D0A2431323D00290D0A2431313D00A5
:100450002028737461747573207265706F727420D4
:100460006D61736B3A00202870726F62652070694D
:100470006E20696E766572742C20626F6F6C290D28
:100480000A2431303D0020286C696D697420706940
:100490006E7320696E766572742C20626F6F6C29A2
:1004A0000D0A24363D0020287374657020656E6146
:1004B000626C6520696E766572742C20626F6F6C59
:1004C000290D0A24353D00290D0A24343D00202839
:1004D00064697220706F727420696E766572742020
:1004E0006D61736B3A00290D0A24333D0020287397
:1004F00074657020706F727420696E7665727420F6
:100500006D61736B3A002028737465702069646CA8
:10051000652064656C61792C206D736563290D0A13
:1005200024323D002028737465702070756C7365EB
:100530002C2075736563290D0A24313D0024303D5C
:10054000002424202876696577204772626C207326
:10055000657474696E6773290D0A242320287669EF
:100560006577202320706172616D657465727329EF
:100570000D0A2447202876696577207061727365BB
:1005800072207374617465290D0A244920287669E4
:100590006577206275696C6420696E666F290D0A43
:1005A000244E2028766965772073746172747570A3
:1005B00020626C6F636B73290D0A24783D76616C41
:1005C0007565202873617665204772626C207365BB
:1005D0007474696E67290D0A244E783D6C696E65E6
:1005E000202873617665207374617274757020625F
:1005F0006C6F636B290D0A24432028636865636B65
:100600002067636F6465206D6F6465290D0A245847
:1006100020286B696C6C20616C61726D206C6F635B
:100620006B290D0A2448202872756E20686F6D6949
:100630006E67206379636C65290D0A7E20286379D3
:10064000636C65207374617274290D0A2120286619
:1006500065656420686F6C64290D0A3F2028637506
:100660007272656E7420737461747573290D0A63F8
:1006700074726C2D782028726573657420477262DD
:100680006C290D0A000D0A436172626964654D6F41
:1006900074696F6E20302E39670D0A005D0D0A00F7
:1006A00044697361626C656400456E61626C656487
:1006B0000043617574696F6E3A20556E6C6F636BA1
:1006C000656400272448277C2724582720746F203E
:1006D000756E6C6F636B00526573657420746F2068
:1006E000636F6E74696E7565005B000D0A00507271
:1006F0006F6265206661696C0041626F727420648C
:100700007572696E67206379636C65004861726415
:100710002F736F6674206C696D697400414C41528F
:100720004D3A20000D0A00496E76616C69642067BD
:10073000636F64652049443A00556E646566696E6E
:1007400065642066656564207261746500556E732A
:100750007570706F7274656420636F6D6D616E6427
:10076000004D6F64616C2067726F75702076696FE1
:100770006C6174696F6E004C696E65206F7665728E
:10078000666C6F7700486F6D696E67206E6F7420BE
:10079000656E61626C656400416C61726D206C6FA6
:1007A000636B004E6F742069646C65004545505260
:1007B0004F4D2072656164206661696C2E2055730F
:1007C000696E672064656661756C74730056616C50
:1007D0007565203C20332075736563005365747420
:1007E000696E672064697361626C65640056616C50
:1007F0007565203C203000496E76616C6964207319
:10080000746174656D656E7400426164206E756D0F
:1008100062657220666F726D617400457870656301
:1008200074656420636F6D6D616E64206C657474B3
:100830006572006572726F723A20006F6B0D0A006C
:1008400011241FBECFEFD8E0DEBFCDBF11E0A0E086
:10085000B1E0ECE0F1E702C005900D92A630B107DF
:10086000D9F726E0A6E0B1E001C01D92A03CB20796
:10087000E1F70E943F040C9484380C9400000E941D
:1008800082140E94F6220E945B190E9476328FE148
:10089000EBE1F5E0DF011D928A95E9F781E08093B5
:1008A0001B0578948091AF0684FF03C081E080939C
:1008B0001C05C1E00E9448150E9450090E94DD13EA
:1008C0000E945A140E94C9280E943B2D0E94622453
:1008D0000E942F190E9499270E94620910921B05FD
:1008E00010921D058091AF0681FF03C0C0932A05B9
:1008F00002C010922A050E94EF15DCCF8F929F92C2
:10090000BF92CF92DF92EF92FF920F931F93CF93FC
:10091000DF9300D000D0CDB7DEB74C01B22E670117
:1009200078018091AF0685FF0BC0C40149835A83CB
:100930006B837C830E941C2B7C816B815A81498153
:1009400080911C05823031F149835A836B837C830B
:100950000E944D1580911B0581111CC00E94B1247D
:1009600049815A816B817C81882339F00E94E2158C
:1009700049815A816B817C81E7CF870176012B2DDC
:10098000C4010E94B92480911C05811103C088E034
:1009900080931C050F900F900F900F90DF91CF91D7
:1009A0001F910F91FF90EF90DF90CF90BF909F909D
:1009B0008F9008952F923F924F925F926F927F9205
:1009C0008F929F92AF92BF92CF92DF92EF92FF925F
:1009D0000F931F93CF93DF93CDB7DEB7E7970FB693
:1009E000F894DEBF0FBECDBF9A8B898B1B013A01F5
:1009F00009871A872B873C87CB8ADC8AED8AFE8A97
:100A0000A98E24E0829E20011124840D951D9B8FC8
:100A10008A8FCA01840D951D9D8F8C8FDC018D906E
:100A20009D90AD90BC90EA8DFB8D208131814281FB
:100A30005381C501B4010E9432346E8F7F8F88A329
:100A400099A32D960FAD2D97F4E00F9F80011124EF
:100A500029893A89200F311F3BA32AA3C301800FA4
:100A6000911F9DA38CA3DC01CD90DD90ED90FC90B7
:100A7000F9012081318142815381C701B6010E9471
:100A800032346EA37FA388A799A7D501C401B058BB
:100A90008D839E83AF83B887D701C601B058898301
:100AA0009A83AB83BC83F101E40DF51D2E8D3F8D40
:100AB00048A159A160817181828193810E94313462
:100AC0006B017C01F101E00FF11F2EA13FA148A5B0
:100AD00059A560817181828193810E9431344B01DB
:100AE0005C01A70196016D817E818F8198850E94AE
:100AF00049372B013C01A501940169817A818B81E1
:100B00009C810E9449379B01AC01C301B2010E9444
:100B100032342B013C01A50194016D817E818F81CE
:100B200098850E9449374B015C01A70196016981B4
:100B30007A818B819C810E9449379B01AC01C50160
:100B4000B4010E943134A30192010E94A5346B01CB
:100B50007C012F968FAD2F9720E030E0A9018823EC
:100B600079F0C701B6010E940E3787FD19C02BED41
:100B70003FE049EC50E4C701B6010E9431340EC099
:100B8000C701B6010E940B35181654F02BED3FE05B
:100B900049EC50E4C701B6010E9432346B017C017C
:100BA0008090AB069090AC06A090AD06B090AE06DB
:100BB00029853A854B855C85CA01B9010E9432348A
:100BC000A50194010E9431349B01AC01C501B4011F
:100BD0000E9449370E94D6374B015C0120E030E08B
:100BE00040E05FE3C701B6010E94493729853A8595
:100BF0004B855C850E9449379F77A50194010E942F
:100C000012350E94E8350E947F357BA76AA7DB0179
:100C1000AB2B09F490C14B01A12CB12CB98DBB2396
:100C200081F0C501B4010E94AB359B01AC016B8919
:100C30007C898D899E890E9449376B8B7C8B8D8B3B
:100C40009E8BC501B4010E94AB354B015C019B0139
:100C5000AC01C701B6010E9412352B013C012E9652
:100C60008FAD2E97E4E08E9FC001112429893A8927
:100C7000280F391F388F2F8BF101E80FF91FD90189
:100C80002D913D914D915C91608171818281938123
:100C90000E943134A50194010E9412356CAB7DABEA
:100CA0008EAB9FABA3019201C301B2010E944937F1
:100CB0009B01AC0160E070E080E090E40E94313480
:100CC0006B017C012BEA3AEA4AE25EE3C301B2011E
:100CD0000E9449374B015C0120E030E040E850E4DD
:100CE000C701B6010E9432349B01AC01C501B401B9
:100CF0000E9449376CA77DA78EA79FA720E030E010
:100D000040E05FE3C701B6010E94493768AB79ABA9
:100D10008AAB9BAB1D86E1E0F0E0FA87E987298585
:100D20003A858AA59BA52817390709F404C1FD85D2
:100D3000FC3008F04AC028A939A94AA95BA96981F1
:100D40007A818B819C810E9449376B017C012CA5A3
:100D50003DA54EA55FA56D817E818F8198850E94FE
:100D60004937A70196010E943234B62EA72E982E3D
:100D7000892E28A939A94AA95BA96D817E818F8115
:100D800098850E9449376B017C012CA53DA54EA595
:100D90005FA569817A818B819C810E9449379B0183
:100DA000AC01C701B6010E9431346D837E838F830D
:100DB00098872D852F5F2D878B2D9A2DA92DB82DE6
:100DC00089839A83AB83BC836BC0A985BA85BD0137
:100DD00080E090E00E94AB35A30192010E94493768
:100DE0006B017C010E940F3569837A838B839C831E
:100DF000C701B6010E94CC374B015C01EC8DFD8D23
:100E0000C080D180E280F380F7FAF094F7F8F09494
:100E1000ACA1BDA18D919D910D90BC91A02D8D8710
:100E20009E87AF87B88B29813A814B815C81C7014E
:100E3000B6010E9449376D837E838F839887A50111
:100E400094016D857E858F8598890E9449379B0125
:100E5000AC016D817E818F8198850E9432346D83D3
:100E60007E838F839887A5019401C701B6010E94F4
:100E700049376B017C0129813A814B815C816D8509
:100E80007E858F8598890E9449379B01AC01C701F7
:100E9000B6010E94313469837A838B839C831D86DB
:100EA0002D813E814F8158856E8D7F8D88A199A1BE
:100EB0000E943234EA8DFB8D608371838283938339
:100EC00029813A814B815C816EA17FA188A599A57A
:100ED0000E943234AAA1BBA16D937D938D939C9304
:100EE00013972CA93DA94EA95FA9EF89F88D6081C0
:100EF0007181828193810E943234AF89B88D6D9364
:100F00007D938D939C9313976396ECACFDAC0EADE3
:100F10001FAD6397298D4B895C896D897E8989898D
:100F20009A890E947E0480911B05811112C0E98577
:100F3000FA853196F2CE6396ECACFDAC0EAD1FADEA
:100F40006397298D4B895C896D897E89C1010E94D7
:100F50007E04E7960FB6F894DEBF0FBECDBFDF91DB
:100F6000CF911F910F91FF90EF90DF90CF90BF90A6
:100F7000AF909F908F907F906F905F904F903F9039
:100F80002F9008958F929F92AF92BF92CF92DF924F
:100F9000EF92FF924B015C0180911C05823009F4B5
:100FA00047C020E030E040EA51E4C501B4010E94AE
:100FB00049370E94E8350E947F356B017C010E9411
:100FC0005F1620E030E04AE754E4C501B4010E9416
:100FD00049374B015C0182E38C9DB0018D9D700D02
:100FE000112480E090E00E94AB359B01AC01C5016B
:100FF000B4010E9431340E94E8350E947F35CB0154
:101000000E948D28C114D10499F00E944D1521E051
:10101000C21AD10880911B0581110AC08FEF90E799
:1010200022E0815090402040E1F700C00000EACF6C
:10103000FF90EF90DF90CF90BF90AF909F908F90F8
:1010400008956F927F928F929F92AF92BF92CF92AC
:10105000DF92EF92FF920F931F93CF93DF9300D015
:1010600000D01F92CDB7DEB73C019E2C80911C05AD
:10107000823009F4B3C02D834B835C8369837A8308
:101080000E945F1680902A0510923905802F0E94D9
:10109000442D0E94562D2D814B815C8169817A817E
:1010A0008823A1F09FB7F89480911D0580648093F8
:1010B0001D059FBF2D834B835C8369837A830E94C8
:1010C0004D157A8169815C814B812D8180911B0551
:1010D000811184C086017501C3010E947E0481E0F4
:1010E00080932C059FB7F89480911D0582608093B2
:1010F0001D059FBF0E944D1580911B0581116EC07B
:1011000080911C05877FB1F780912C058130A9F46F
:10111000992051F08CE0EEE1F5E0ADE2B5E0019010
:101120000D928A95E1F70CC09FB7F89480911D0548
:10113000806480931D059FBF03C081E080933905C3
:1011400010922C050E944D1580911B05811146C0FF
:101150000E942F190E9462240E9499270EE115E037
:1011600082E7A82E86E0B82E6301F80161917191A3
:10117000819191918F01F50121913191419151918D
:101180005F012D8339834B835C830E94AD352D81B4
:1011900039814B815C810E941235F6016193719314
:1011A000819391936F01F5E00A321F07F1F6809267
:1011B0002A050F900F900F900F900F90DF91CF9115
:1011C0001F910F91FF90EF90DF90CF90BF90AF9065
:1011D0009F908F907F906F900C947B2F0F900F902B
:1011E0000F900F900F90DF91CF911F910F91FF9073
:1011F000EF90DF90CF90BF90AF909F908F907F90B7
:101200006F90089580911D0584FD1AC09FB7F894D2
:1012100080911D05806180931D059FBF0E94D6139C
:101220000E94581480911C05847351F09FB7F89464
:1012300080911D05806280931D059FBF0C949916B7
:10124000089583B186719091AF0696FD02C096E134
:101250008927882359F00E9402099FB7F89480914A
:101260001D05806680931D059FBF089584E08093CF
:101270001C050E94BE2884E00E94182983E00E9479
:1012800018290E944D1580911B05811108C00E94EC
:10129000620910921C050E9499160C94C9280895A1
:1012A0008FE3EAE3F5E0DF011D928A95E9F76DE54A
:1012B00075E080E00E94B321811103C087E00C94A7
:1012C000752D0895CF92DF92EF92FF920F931F93A7
:1012D000CF93DF9300D000D0CDB7DEB78EE1C82E1C
:1012E00085E0D82E92E7E92E96E0F92E01E515E08B
:1012F000F60161917191819191916F01F7012191B5
:101300003191419151917F0129833A834B835C83D1
:101310000E94AD3529813A814B815C810E94123552
:10132000F80161937193819391938F01FAE2CF1643
:10133000F5E0DF06E9F60F900F900F900F90DF9128
:10134000CF911F910F91FF90EF90DF90CF90089574
:101350002F923F924F925F926F927F928F929F92C5
:10136000AF92BF92CF92DF92EF92FF920F931F93B3
:10137000CF93DF93CDB7DEB7AB970FB6F894DEBF50
:101380000FBECDBF98A38F8F89E3E9E7F5E0DF01BA
:101390001D928A95E9F78AE0EAE3F5E0AAE7B5E06D
:1013A00001900D928A95E1F71D8E212C312CA12CF4
:1013B000B12C19A2512C1E8E66246394712C992491
:1013C000939492E0892E26E0422E8D8DEF8DF8A128
:1013D000E80FF11D0081002309F46DC29FEB900F0F
:1013E0009A3110F00C94A0138F5F8D8FAE01475E81
:1013F0005F4FBE01635E7F4F8F8D98A10E94DB27F8
:10140000882311F40C94A213C98CDA8CEB8CFC8C1D
:10141000C701B6010E9417380E947F35162F70E071
:1014200080E090E00E94AD359B01AC01C701B601A0
:101430000E94313420E030E048EC52E40E94493709
:101440000E94AC370E947F35073421F00D3409F437
:1014500034C174C1163209F494C0D0F4143160F46C
:10146000113108F0D3C0143009F454C008F489C015
:101470001A30A1F10C94AE131C3181F128F416310D
:1014800008F4E4C00C94AE131E3141F10C94AE1379
:10149000103509F4B7C0A8F4153309F45EC040F460
:1014A0001B3209F4DCC0113309F4D9C00C94AE131B
:1014B0001C3310F00C94AE1316531093800587E084
:1014C000E8C01C3559F028F41A3508F0ADC00C946A
:1014D000AE131F3508F4B1C00C94AE13611571053D
:1014E00031F4BE8DB1110C94A413E1E0EE8F1C31E8
:1014F000A1F040F4143071F01A3009F0C7C08092A6
:101500007905C4C0153349F11C3559F11E3109F074
:10151000BDC013C090927905B9C06115710549F03D
:101520006A30710511F00C94AE1324E02093790514
:101530000AC0F3E0F093790506C06115710529F43E
:1015400035E03093790580E0A9C06A30710511F06B
:101550000C94AE1340927905F6CF87E0809379051D
:1015600095C06115710549F06A30710511F00C9450
:10157000AE13A9E0A0937905E6CF98E090937905A2
:10158000E2CFBE8DB1110C94A413E2E0EE8F1230C5
:1015900089F028F4112359F0113081F079C0163206
:1015A00081F0103579F1133009F072C007C0109244
:1015B0007A056EC0FE8DF0937A056AC010937A05A5
:1015C00067C06E317105B1F048F46431710511F0F6
:1015D0000C94AE1324E020937A0512C06832710592
:1015E00069F06233710511F00C94AE1387E08093BB
:1015F0007A0506C035E030937A0502C040927A053C
:1016000081E04CC098E090937A0542C0123129F0F5
:10161000133131F010927E0505C090927E0502C014
:1016200080927E0582E035C01A3519F410927D054E
:1016300002C090927D0583E02CC01D3519F4909274
:101640007B0502C010927B0584E023C0143119F49D
:1016500090927C0502C010927C0585E01AC0AE8D88
:10166000A1110C94A413113331F410927F0586E07C
:10167000B3E0BE8F13C06A30710511F00C94AE1345
:1016800090927F0586E0E3E0EE8F08C080E001C025
:1016900081E0672B19F087E10C94BD13930102C020
:1016A000220F331F8A95E2F7C9012A213B21232B00
:1016B00009F441C085E10C94BD13672B61F7163026
:1016C00018F4133058F016C0183010F40C94AE1300
:1016D0001A30F0F01E3159F00C94AE13123039F07C
:1016E0001E3129F011111DC0909281051AC08092FF
:1016F000810517C0143029F0153031F09092830520
:1017000005C08092830502C01092830589E00AC05B
:10171000193019F08092820502C0109282058AE089
:1017200001C088E0D30102C0AA0FBB1F8A95E2F76F
:10173000CD019D01BACFA82AB92A47CE802F99277B
:1017400087FD9095A92FB92FFC01E654F109E531E9
:10175000F10510F00C94AE13EC5CFF4F0C94643860
:10176000C0928405D0928505E0928605F0928705A7
:1017700080E07FC0C0928805D0928905E0928A05FA
:10178000F0928B05B9A1B160B9A381E072C0C0929B
:101790008C05D0928D05E0928E05F0928F05E9A11F
:1017A000E260E9A382E065C0C0929005D092910505
:1017B000E0929205F0929305F9A1F460F9A383E019
:1017C00058C01093940584E054C0C701B6010E942C
:1017D0007A3560939505709396058093970590935D
:1017E000980585E046C0C0929905D0929A05E0928E
:1017F0009B05F0929C0586E03CC0C0929D05D0926E
:101800009E05E0929F05F092A00587E032C0C0924D
:10181000A105D092A205E092A305F092A40588E06C
:1018200028C0C092A605D092A705E092A805F09224
:10183000A905252D2160522E8AE01BC0C092AA0561
:10184000D092AB05E092AC05F092AD05352D32603B
:10185000532E8BE00EC0C092AE05D092AF05E09241
:10186000B005F092B105852D8460582E8CE001C042
:1018700089E08301082E02C0000F111F0A94E2F7CD
:10188000980122213321232B09F060C7A1E6B3E0A0
:1018900002C0B595A7958A95E2F7A0FF09C020E0A0
:1018A00030E0A901C701B6010E940B3587FD50C782
:1018B000202A312A8ACD552029F0BE8DB11102C0CF
:1018C000E2E0EE8F25FE0EC0809195059091960581
:1018D000A0919705B091980580389649A849B1051F
:1018E0000CF038C780917B05813031F42E8D223089
:1018F000A1F520FE39C731C080913B0581112DC073
:1019000020FE1BC080917C05813039F523E333E351
:101910004BEC51E4609184057091850580918605BA
:10192000909187050E9449376093840570938505DF
:10193000809386059093870510C08091480590910B
:101940004905A0914A05B0914B0580938405909379
:101950008505A0938605B093870530FC10C0809163
:10196000440590914505A0914605B09147058093A7
:10197000A1059093A205A093A305B093A40580911F
:101980007905813031F426FC02C08CE1F6C6E8947A
:1019900026F880917E05882341F0813061F019A6F8
:1019A00092E098A7A1E0AFA30BC032E039A781E095
:1019B00088A71FA205C0B1E0B9A718A6E2E0EFA36F
:1019C00080917C05813021F0FE8DF33091F52AC0A5
:1019D00006EAE02E05E0F02E00E010E0C52CD12C48
:1019E000C601002E02C0959587950A94E2F780FF04
:1019F00010C023E333E34BEC51E4D7016D917D91AB
:101A00008D919C910E944937F70160837183828395
:101A100093830F5F1F4FF4E0EF0EF11C03301105AD
:101A2000F9F6D2CF80917F05813019F424E052126B
:101A300093C68CE0EDE5F5E0DE011D9601900D9278
:101A40008A95E1F7A7FC09C0309179053F8F3230C4
:101A5000B9F0383009F4AFC014C1809180058730E7
:101A600010F08DE18AC690914005981769F3BE0188
:101A7000635F7F4F0E94B3218111E6CF87E07DC66F
:101A8000511002C08AE179C6C10180759927892B5E
:101A900009F47BCF6091990570919A0580919B051F
:101AA00090919C050E9417380E947F356730C8F6D8
:101AB00080919405843129F0823009F04FC627FCCB
:101AC0004DC68FEA2822662319F061506F8F03C03C
:101AD000909180059F8FBE016F5F7F4F8F8D0E9419
:101AE000B321882359F24090940560907505709059
:101AF00076058090770590907805DE0111967D013E
:101B0000B6EAAB2EB5E0BB2E11E5C12E15E0D12E05
:101B100000E010E0E52DF0E0FEA3EDA38DA19EA175
:101B2000002E02C0959587950A94E2F780FF33C096
:101B3000F4E14F1226C0D60158962D913D914D915A
:101B40005C915B976D917D918D919C910E94313458
:101B5000F50120813181428153810E943134D701C6
:101B60006D937D938D939C9313970230A1F4A40100
:101B700093010E943134F7016083718382839383E0
:101B80000AC0F50180819181A281B381F701808330
:101B90009183A283B3830F5F1F4FF4E0EF0EF11C1C
:101BA00024E0A20EB11C34E0C30ED11C0330110599
:101BB00009F0B4CF0FC1552009F464CF60907505CA
:101BC00070907605809077059090780506EA15E08C
:101BD000A1E5CA2EA5E0DA2E5E018DE0A80EB11CAB
:101BE000E12CF12CA52DB0E0B8A3AF8F8F8D98A17B
:101BF0000E2C02C0959587950A94E2F780FF26C0C7
:101C0000F5012081318142815381D6016D917D9111
:101C10008D919C910E943134F80120813181428163
:101C200053810E943134D8016D937D938D939C93A1
:101C30001397B2E0EB1214C0A40193010E94313457
:101C4000F80160837183828393830AC0F601808DDB
:101C5000918DA28DB38DF80180839183A283B3838C
:101C6000FFEFEF1AFF0A0C5F1F4F24E0C20ED11CDA
:101C700034E0A30EB11C83E0E816F10409F0B6CFFE
:101C8000A8C09E8D933059F4AF8DA53009F48FC054
:101C9000A73009F499C0A33009F09BC080C055203B
:101CA00099F340907D056090750570907605809061
:101CB000770590907805F1E5CF2EF5E0DF2E06EA66
:101CC00015E05E01BDE0AB0EB11CE12CF12CE52D61
:101CD000F0E0FEA3EDA38DA19EA10E2C02C0959570
:101CE00087950A94E2F780FD0BC0F601808191810F
:101CF000A281B381F80180839183A283B3833EC024
:101D0000FF8DF730D9F1411028C0D60158962D919A
:101D10003D914D915C915B97F5016081718182816C
:101D200093810E943234D8012D913D914D915C9167
:101D30000E943234F8016083718382839383F2E0DE
:101D4000EF121CC0A40193010E943234D8016D939C
:101D50007D938D939C93139711C0F601208131815F
:101D600042815381D8016D917D918D919C910E940A
:101D70003234F8016083718382839383FFEFEF1A1B
:101D8000FF0A24E0C20ED11C0C5F1F4F34E0A30EEB
:101D9000B11C83E0E816F10409F09DCF75CF511016
:101DA00001C01E8EBE016F5F7F4F86E007C05110DD
:101DB00001C01E8EBE016F5F7F4F87E00E94B3217E
:101DC000882309F45BCE05C080917A05823008F043
:101DD000C7C41F8E10917A05183041F4552009F4BC
:101DE000B3C19E8D913009F0BDC48BC2AE8DA230BF
:101DF00009F0AAC11123D9F020E030E0A9016091D7
:101E000084057091850580918605909187050E94D3
:101E10000B35882309F4A8C4143028F4123058F480
:101E2000113029F06EC2183008F44DC16AC2511049
:101E300068C21E8E8CC1552009F424CEFFA1EF2F5D
:101E4000F0E0FEA3EDA338A5232F30E03BA72AA79F
:101E500081E090E03C0108A402C0660C771C0A9463
:101E6000E2F70FA002C0880F991F0A94E2F7682AD0
:101E7000792A852D90E086219721892B09F476C453
:101E8000CF01880F991F880F991FFC01E758FA4F5F
:101E9000DC01A65CBA4F57962D913D914D915C9116
:101EA0005A9765A576A587A590A90E9431346B0144
:101EB0007C018AA59BA5880F991F880F991FFC019B
:101EC000E758FA4FDC01A65CBA4F57962D913D9129
:101ED0004D915C915A9765A576A587A590A90E941A
:101EE00031344B015C0127FE40C0E89427F8209173
:101EF000A6053091A7054091A8055091A9056091CC
:101F000051057091520580915305909154050E949E
:101F10000B35811120C12091AA053091AB0540916C
:101F2000AC055091AD0560915505709156058091B5
:101F30005705909158050E940B3581110CC12091D5
:101F4000AE053091AF054091B0055091B10560915B
:101F5000590570915A0580915B0590915C050E942E
:101F60000B358111F8C081E208C4F9A14F2E512C24
:101F700064207520672809F4FBC321EF2222809199
:101F80007C05813009F45AC00AA51BA5000F111F5A
:101F9000000F111F03581A4FD8011B962D913D9128
:101FA0004D915C911E97C501B4010E9431342B0103
:101FB0003C01ADA0BEA0AA0CBB1CAA0CBB1CF50129
:101FC000E358FA4F5F012385348545855685C7015F
:101FD000B6010E943134A30192010E9498286B013E
:101FE0007C01D8011B962D913D914D915C911E97DE
:101FF000F50163857485858596850E9498284B0137
:102000005C0160939D0570939E0580939F0590935E
:10201000A0059B01AC01C701B6010E9431346B01E0
:102020007C01E894F7F82AE037ED43EA5BE3C70167
:10203000B6010E940E3718164CF163C128E8622ED3
:1020400025E0722E00E010E0C201002E02C095953E
:1020500087950A94E2F780FF10C023E333E34BEC4B
:1020600051E4D3016D917D918D919C910E944937EE
:10207000F30160837183828393830F5F1F4FF4E0CA
:102080006F0E711C03301105F9F67ECF20E030E0B1
:1020900040E05FE3C701B6010E940E3718160CF44A
:1020A00062CF2FE632E143E85AE3C501B4010E9452
:1020B00049379B01AC01C701B6010E940E371816C3
:1020C0000CF451CF1EC1552009F4DCCC2091A6059B
:1020D0003091A7054091A8055091A905609151053F
:1020E0007091520580915305909154050E940B35D3
:1020F000811107C12091AA053091AB054091AC0533
:102100005091AD0560915505709156058091570528
:10211000909158050E940B358111F3C02091AE05B6
:102120003091AF054091B0055091B10560915905CE
:1021300070915A0580915B0590915C050E940B356A
:10214000882309F410CFDDC02E8D2111DAC0C10122
:102150008E7D9C7FD9C080917C058130B1F423E3D2
:1021600033E34BEC51E460919D0570919E058091A5
:102170009F059091A0050E94493760939D0570933B
:102180009E0580939F059093A00540909D055090DB
:102190009E0560909F057090A00520E030E040E82B
:1021A00050E4C301B2010E944937A30192010E9489
:1021B00049372B013C01A7019601C701B6010E94D6
:1021C00049379B01AC01C301B2010E9431342B019C
:1021D0003C01A5019401C501B4010E9449379B014E
:1021E000AC01C301B2010E9431342B013C0120E05B
:1021F00030E0A9010E940B3587FDBEC2C301B201C8
:102200000E94D6372B013C01A5019401C701B601FC
:102210000E9498289B01AC01C301B20190580E9412
:1022200012352B013C0180917A05833021F477FA35
:10223000709477F8709480919D0590919E05A0917F
:102240009F05B091A00589A39AA3ABA3BCA320E0EE
:1022500030E0A901BC01CD010E940B3587FF11C000
:1022600077FA709477F8709489A19AA1ABA1BCA178
:10227000B05880939D0590939E05A0939F05B093C1
:10228000A0050DA11EA1000F111F000F111F035863
:102290001A4FA3019201C501B4010E9449379B0165
:1022A000AC01C701B6010E94313420E030E040E0CB
:1022B0005FE30E944937D8011B966D937D938D9300
:1022C0009C931E970AA51BA5000F111F000F111F3D
:1022D00003581A4FA3019201C701B6010E94493762
:1022E0009B01AC01C501B4010E94323420E030E012
:1022F00040E05FE30E944937F80163877487858770
:102300009687C1018E7D907E892B09F033C2809122
:10231000950590919605A0919705B09198058093A9
:102320004D0590934E05A0934F05B09350058091B5
:102330007B0580933B058091840590918505A09154
:102340008605B09187058093480590934905A09331
:102350004A05B0934B05C090A105D090A205E0902E
:10236000A305F090A405A701960160914405709122
:10237000450580914605909147050E940B358823BD
:1023800081F0C0924405D0924505E0924605F09256
:10239000470580914305882321F0B701A6010E94DB
:1023A000E2138091A50580934C058091830590915F
:1023B0004305981761F0809343054091440550917F
:1023C000450560914605709147050E94E213809192
:1023D000820590914205981721F0809342050E9452
:1023E0005D1480917905813051F460919905709167
:1023F0009A0580919B0590919C050E94C20780914F
:102400007E0580933E0580917C0580933C053E8D42
:102410003330F9F480917F0580933F05813089F452
:102420008091AE059091AF05A091B005B091B10536
:102430008093750590937605A0937705B093780502
:1024400008C01092750510927605109277051092CB
:1024500078058091800590914005981759F08093F8
:1024600040058CE0FE013D96ADE5B5E001900D9292
:102470008A95E1F780917D0580933D0580917905EE
:1024800090E0FC013297E830F10508F05BC0E75BB3
:10249000FF4F0C946438BE016F5F7F4F8F8D0E9499
:1024A0008820809140059F8D89134CC08CE0FE01EF
:1024B0003196ADE5B5E02AC0AE8DAA2389F0E09053
:1024C0004D05F0904E0500914F051091500520E00C
:1024D00040E050E060E87FEB86EA95E00E947E04F1
:1024E000E0904D05F0904E0500914F05109150057C
:1024F00020E040E050E060E87FEBCE0101960E94D2
:102500007E048CE0FE013196A1E5B5E001900D92CC
:102510008A95E1F717C061E575E086E003C061E5E3
:1025200075E087E00E9488200DC08CE0E6EAF5E0C7
:10253000A9E6B5E0EBCF8CE0E9E6F5E0DF011D921E
:102540008A95E9F780917A0580933A05883009F4F5
:10255000E2C0BE8DB23009F0DEC090E08830910557
:1025600008F0D0C0FC01EF5AFF4F0C946438E090A3
:102570004D05F0904E0500914F051091500520E05B
:1025800040E050E060E87FEB12C0E0904D05F09035
:102590004E0500914F05109150054091480550910E
:1025A000490560914A0570914B0520913B0586EAEB
:1025B00095E00E947E04A6C0C0904805D0904905D1
:1025C000E0904A05F0904B0500919D0510919E0505
:1025D00020919F053091A005809150058F938091A7
:1025E0004F058F9380914E058F9380914D058F936A
:1025F00081E08F93E9A5EF93F8A5FF9321C0C090E8
:102600004805D0904905E0904A05F0904B050091AF
:102610009D0510919E0520919F053091A005809108
:1026200050058F9380914F058F9380914E058F9326
:1026300080914D058F931F9289A58F9398A59F93A5
:102640008FA0A0903B0548E855E066EA75E081E57B
:1026500095E00E94DA040FB6F894DEBF0FBECDBF3E
:1026600051C0A0904D05B0904E05C0904F05D09040
:102670005005409148055091490560914A05709177
:102680004B05E12C12C0A0904D05B0904E05C090B6
:102690004F05D090500540914805509149056091F3
:1026A0004A0570914B05EE24E39400E025C0A0900C
:1026B0004D05B0904E05C0904F05D090500540910B
:1026C00048055091490560914A0570914B05E12CF0
:1026D00012C0A0904D05B0904E05C0904F05D0900F
:1026E0005005409148055091490560914A05709107
:1026F0004B05EE24E39401E020913B0586EA95E04A
:102700000E9421088CE0E6EAF5E0A1E5B5E0019041
:102710000D928A95E1F78091810580934105882388
:1027200069F00E945F1610922A058091410582305F
:1027300019F40E94020902C01092410580E01DC0F8
:1027400081E01BC082E019C088E117C089E115C093
:1027500084E013C08BE111C085E20FC084E10DC09D
:102760008EE10BC08FE109C086E107C080E205C0A1
:1027700083E203C084E201C082E2AB960FB6F89414
:10278000DEBF0FBECDBFDF91CF911F910F91FF90A4
:10279000EF90DF90CF90BF90AF909F908F907F9001
:1027A0006F905F904F903F902F900895E0EBF0E096
:1027B00080818F7780832B980895239A239A259A76
:1027C0000C94D613CF92DF92EF92FF92CF93DF93C8
:1027D0001F92CDB7DEB76A017B0190911C05923044
:1027E00009F45EC089830E94E2150E945F16898108
:1027F000811109C00F90DF91CF91FF90EF90DF9092
:10280000CF900C94D613813011F42D9801C02D9ADD
:1028100083E88093B0008091B100887F82608093CC
:10282000B10020E030E84BEB54E4C701B6010E9450
:102830000B3587FD1AC020E030E84BEB54E4C701AC
:10284000B6010E9431346B017C0120E030ED44E0A0
:1028500056E40E940E3718165CF4C12C80EDD82E79
:1028600084E0E82E86E4F82E03C0C12CD12C76013A
:102870002FE832EC45EF5CE3C701B6010E9449370F
:1028800020E030E040E05FE30E9432340E94E8350F
:102890000E947F35643108F464E16093B3002B9AA1
:1028A0000F90DF91CF91FF90EF90DF90CF90089540
:1028B000439808953B9A0C945814CF93DF931F923A
:1028C000CDB7DEB790911C05923079F089830E94D4
:1028D000E2150E945F168981823011F4439A05C087
:1028E0000F90DF91CF910C9458140F90DF91CF91FE
:1028F00008959091080180910901891708F4805882
:10290000891B0895E0ECF0E0808182608083109262
:10291000C50080E18093C400E1ECF0E0808180613B
:10292000808380818860808380818068808308952F
:10293000E091070191E09E0F903409F490E020911E
:102940000601921305C020911D0524FFF8CF0895BC
:10295000F0E0EE54FA4F8083909307018091C1001C
:1029600080628093C10008951F920F920FB60F925C
:1029700011248F939F93EF93FF9380910601E82F8B
:10298000F0E0EE54FA4F90819093C6008F5F803450
:1029900009F480E08093060190910701891305C036
:1029A0008091C1008F7D8093C100FF91EF919F9135
:1029B0008F910F900FBE0F901F9018959091080166
:1029C00080910901891761F0E92FF0E0EE50FA4F8C
:1029D00080819F5F903809F490E0909308010895FA
:1029E0008FEF08951F920F920FB60F9211242F931D
:1029F0003F934F935F936F937F938F939F93AF9387
:102A0000BF93EF93FF938091C6008132B1F028F419
:102A10008831E1F40E9402092AC08F3341F08E37D9
:102A2000A9F49FB7F89480911D0582600BC09FB7F1
:102A3000F89480911D05816005C09FB7F89480913E
:102A40001D05886080931D059FBF11C0E09109019D
:102A500091E09E0F903809F490E0209108019217C0
:102A600031F0F0E0EE50FA4F808390930901FF912E
:102A7000EF91BF91AF919F918F917F916F915F91F6
:102A80004F913F912F910F900FBE0F901F9018956F
:102A900080910901809308010895CF93C0911D058D
:102AA000CC2309F486C08C2F807639F181E08093A5
:102AB0001C05C6FF17C0C5FF02C08FEF01C08DEF18
:102AC0000E94C32D81E00E94E22D9FB7F89480916F
:102AD0001D058F7E80931D059FBF80911D0584FF7E
:102AE000FCCF03C08EEF0E94C32D9FB7F894809156
:102AF0001D058F7980931D059FBFC4FF04C081E031
:102B000080931B055DC0C0FF0AC00E9445319FB77E
:102B1000F89480911D058E7F80931D059FBFC3FF94
:102B200015C080911C05803149F480E280931C051A
:102B30000E947D190E949F1910922A059FB7F89450
:102B400080911D05877F80931D059FBFC1FF1DC01C
:102B500080911C05883089F480E180931C050E94D7
:102B60009F190E9479168091AF0681FF04C081E011
:102B700080932A0502C010922A059FB7F89480918D
:102B80001D058D7F80931D059FBFC2FF12C00E944F
:102B90008724892B21F088E080931C0502C01092C5
:102BA0001C059FB7F89480911D058B7F80931D05B0
:102BB0009FBF80911C05847319F0CF910C949F19CD
:102BC000CF91089580912A05882341F09FB7F8940A
:102BD00080911D05826080931D059FBF0895CF934E
:102BE000DF930E94082E80911C05813021F482E041
:102BF0000E94E22D21C010921C058AE091E00E9403
:102C0000C3321AC08D3069F0DD2389F1D1E08932F9
:102C100009F4D0E00E94DE148F3F09F444C08A30EA
:102C200089F7EC2FF0E0E65FFE4F10820E944D1511
:102C300080911B05882311F0C0E0EBCF80910A0141
:102C4000811103C00E94752DF7CF843229F48AE0E8
:102C500091E00E94E232F6CF80911C05813011F4A0
:102C600089E0F0CF8AE091E00E94A809EBCF8132A1
:102C700088F28F3279F28832A1F0CF3428F08BE0DD
:102C80000E94752DC0E0C6CF2C2F30E0CF5F9FE9AA
:102C9000980FF901E65FFE4F9A3108F48052808365
:102CA000B9CFD1E0B7CF0E94E2150E944D158091B7
:102CB0001B05882309F4AECFDF91CF9108950E94C0
:102CC000E21580911C05803171F481E080932A0522
:102CD0000AC080911C05803159F40E944D158091E5
:102CE0001B05811105C00E948724892BB1F7F1CF04
:102CF00008958091AF0682FF02C0289A01C02898EB
:102D000080911C058471A1F080918A0180939E01BD
:102D100080918B0180939D018091A206880F845041
:102D2000819580939C0180916F00826080936F00F9
:102D3000089580916F008D7F80936F008091810056
:102D4000887F816080938100109289018091A5061F
:102D50008F3F21F490911D0595FF09C090911C05AE
:102D6000943029F090E00E948D2881E001C080E03D
:102D70009091AF0692FF02C091E08927882311F05D
:102D8000289A0895289808951F920F920FB60F92CF
:102D900011242F933F934F935F936F937F938F9360
:102DA0009F93AF93BF93CF93DF93EF93FF93809164
:102DB00089018111EFC19BB180919E01807E9F713D
:102DC000892B8BB98BB1837E90919D01892B8BB917
:102DD00080919C0186BD82E085BD81E08093890160
:102DE00078948091B0019091B101892B09F0A4C031
:102DF00080918E0190918D01981709F492C0E09115
:102E00008E0186E0E89FF0011124EE54FE4FF0930E
:102E1000B101E093B0018381948190938900809304
:102E20008800808191819093AC018093AB01A28155
:102E30008091AD018A1771F1A093AD0181E1A89F46
:102E4000D0011124AA52BE4FB093AF01A093AE019E
:102E50001D968D919D910D90BC91A02DB695A79535
:102E60009795879580938F0190939001A0939101FE
:102E7000B09392018093930190939401A093950154
:102E8000B09396018093970190939801A093990134
:102E9000B0939A01C091AE01D091AF0180918A01A7
:102EA0009881892780939E01258189819A81AB81B0
:102EB000BC81022E04C0B695A795979587950A9474
:102EC000D2F780939F019093A001A093A101B093AA
:102ED000A2018D819E81AF81B885022E04C0B69576
:102EE000A795979587950A94D2F78093A30190931D
:102EF000A401A093A501B093A60189859A85AB850D
:102F0000BC8504C0B695A795979587952A95D2F765
:102F10008093A7019093A801A093A901B093AA015F
:102F20000BC00E9499169FB7F89480911D0584608C
:102F300080931D059FBF2EC10E945C2D10929D01A4
:102F400080919F019091A001A091A101B091A20157
:102F500040918F0150919001609191017091920187
:102F6000840F951FA61FB71F80938F019093900128
:102F7000A0939101B0939201E091AE01F091AF0165
:102F80004585568567857089481759076A077B0705
:102F900068F524E020939D014585568567857089F5
:102FA000841B950BA60BB70B80938F019093900118
:102FB000A0939101B0939201208180911E05909180
:102FC0001F05A0912005B091210525FF04C00197A0
:102FD000A109B10903C00196A11DB11D80931E0571
:102FE00090931F05A0932005B09321058091A30124
:102FF0009091A401A091A501B091A60140919301E7
:10300000509194016091950170919601840F951FE4
:10301000A61FB71F8093930190939401A0939501ED
:10302000B09396014585568567857089481759077D
:103030006A077B0778F520919D01286020939D0108
:103040004585568567857089841B950BA60BB70B44
:103050008093930190939401A0939501B09396016E
:1030600020818091220590912305A0912405B091A3
:10307000250526FF04C00197A109B10903C00196E7
:10308000A11DB11D8093220590932305A0932405D3
:10309000B09325058091A7019091A801A091A90165
:1030A000B091AA01409197015091980160919901C6
:1030B00070919A01840F951FA61FB71F80939701E7
:1030C00090939801A0939901B0939A0145855685F4
:1030D00067857089481759076A077B0778F520913B
:1030E0009D01206120939D014585568567857089E6
:1030F000841B950BA60BB70B8093970190939801B7
:10310000A0939901B0939A01208180912605909116
:103110002705A0912805B091290527FF04C0019734
:10312000A109B10903C00196A11DB11D8093260517
:1031300090932705A0932805B093290580911C053D
:10314000843039F480912B0590919D0189238093DF
:103150009D018091AB019091AC0101979093AC01DE
:103160008093AB01892B69F41092B1011092B001E8
:1031700080918E018F5F80938E01863011F41092C2
:103180008E0180918B0190919D01892780939D01F3
:1031900010928901FF91EF91DF91CF91BF91AF9193
:1031A0009F918F917F916F915F914F913F912F915F
:1031B0000F900FBE0F901F9018951F920F920FB691
:1031C0000F9211248F939F939BB180918B018C71EF
:1031D000937E892B8BB915BC9F918F910F900FBE59
:1031E0000F901F901895FF920F931F93CF93DF932B
:1031F00010928B0110928A01C0E0D0E00C2F1C2F9E
:103200002091A30630E08C2F0C2E02C03595279517
:103210000A94E2F720FF07C0F0908B010E94292357
:103220008F2980938B012091A40630E002C0359550
:1032300027951A95E2F720FF08C010918A01802F88
:103240000E943323812B80938A012196C330D105BC
:10325000A9F6DF91CF911F910F91FF9008950E94E1
:1032600099168BE2EAE5F1E0DF011D928A95E9F714
:1032700083E2EFE8F1E0DF011D928A95E9F7109211
:1032800088011092870110928E0110928D0181E0C9
:1032900080938C01109289010E94F3188BB1837E78
:1032A00090918B01892B8BB98BB18F7190918A0191
:1032B000892B8BB908958AB18C618AB9209A8AB119
:1032C000806E8AB9E1E8F0E080818F7E8083808122
:1032D00088608083E0E8F0E080818C7F808380815B
:1032E0008F708083EEE6F0E08081887F808314BC5D
:1032F00015BC8081816080830895CF93DF93C09156
:103300008701D09188012097B9F081E080935B011B
:1033100060917101709172018091730190917401BB
:103320009B01AC010E944937698B7A8B8B8B9C8BFC
:103330001092880110928701DF91CF9108952F920A
:103340003F924F925F926F927F928F929F92AF9235
:10335000BF92CF92DF92EF92FF920F931F93CF9382
:10336000DF93CDB7DEB7E5970FB6F894DEBF0FBE9B
:10337000CDBF90918E0180918C01981709F4E1C521
:103380008091870190918801892B09F057C20E9492
:1033900087241C019093880180938701009709F48A
:1033A000D0C580915B0110911C05882319F0109203
:1033B0005B01BDC080915A018F5F853019F0809309
:1033C0005A0102C010925A01E0915A0121E12E9F48
:1033D000F0011124EA52FE4FF0938601E09385013B
:1033E000D1018C91808311964D915D916D917C916D
:1033F000149703E0440F551F661F771F0A95D1F7F6
:10340000418352836383748315964D915D916D91D1
:103410007C91189783E0440F551F661F771F8A958C
:10342000D1F7458356836783708719964D915D91D7
:103430006D917C911C9793E0440F551F661F771F79
:103440009A95D1F741875287638774871D966D914E
:103450007D918D919C9150976B017C0123E0CC0C68
:10346000DD1CEE1CFF1C2A95D1F7C586D686E786A3
:10347000F08A0E94AB3560935C0170935D0180938C
:103480005E0190935F01F10125A136A147A150A5EE
:103490000E9412359B01AC01609360017093610141
:1034A000809362019093630160E070E080EA9FE3A3
:1034B0000E941235609364017093650180936601E8
:1034C00090936701109268011092690110926A014D
:1034D00010926B011032E1F46091790170917A01E0
:1034E00080917B0190917C016093710170937201D6
:1034F00080937301909374019B01AC010E94493742
:10350000D10151966D937D938D939C9354970FC0E9
:10351000F10161897289838994890E94D637609309
:1035200071017093720180937301909374011092F2
:103530006D0110926E0110926F0110927001D10115
:1035400091968D909D90AD90BC909497A50194011B
:1035500060E070E080E09FE30E9412352B013C01A7
:10356000F101C5A0D6A0E7A0F0A4103209F04DC02B
:10357000F2E0F0936C01D10151962D913D914D9166
:103580005C9154972D833E834F8358870E9449371F
:103590009B01AC01C701B6010E9431342B013C01F3
:1035A00020E030E0A9010E940B3587FF1DC0A50176
:1035B0009401C501B4010E943234A70196010E9412
:1035C00049379B01AC016D817E818F8198850E9476
:1035D00031340E94D6376093790170937A018093D9
:1035E0007B0190937C012AC140926D0150926E0143
:1035F00060926F01709270011092790110927A01BD
:1036000010927B0110927C0119C110926C01C09242
:103610007D01D0927E01E0927F01F09280010E94B4
:1036200097244B015C016093790170937A01809338
:103630007B0190937C019B01AC010E944937698317
:103640007A838B839C830091870110918801D80134
:1036500095962D913D914D915C91989729873A8748
:103660004B875C8751962D913D914D915C9154977C
:103670002D833E834F8358879B01AC016D817E81F2
:103680008F8198850E9431349B01AC01C301B20146
:103690000E9449379B01AC0169857A858B859C85A1
:1036A0000E94323420E030E040E05FE30E9449377E
:1036B0006B017C0120E030E0A9010E940E37181652
:1036C0000CF0ACC029853A854B855C85C701B601F5
:1036D0000E940B3587FF8EC0F801858C968CA78CD5
:1036E000B0A029813A814B815C81C501B4010E945F
:1036F00031349B01AC01C301B2010E944937609390
:103700008101709382018093830190938401A701CA
:1037100096010E940B3587FF3DC0C501B4010E9490
:10372000D6376093750170937601809377019093FB
:103730007801A50194016D817E818F8198850E9419
:103740000B35811104C0F1E0F0936C0177C02D813D
:103750003E814F815885C501B4010E9431349B01DF
:10376000AC01C301B2010E9449379B01AC016091D9
:103770007D0170917E0180917F01909180010E9476
:10378000313460937D0170937E0180937F0190932B
:10379000800154C0C0927D01D0927E01E0927F01F1
:1037A000F0928001C0928101D0928201E092830167
:1037B000F0928401D80191966D917D918D919C91AB
:1037C00094979B01AC010E943234A70196010E949C
:1037D000493729813A814B815C810E9432340E94B1
:1037E000D63760937501709376018093770190933B
:1037F000780124C0B2E0B0936C0180917101909186
:103800007201A0917301B09174018093750190933E
:103810007601A0937701B093780110C010927D01DA
:1038200010927E0110927F011092800180927501AA
:1038300090927601A0927701B092780180918D01EB
:10384000F6E0F89FF0011124EE54FE4FFE83ED8365
:1038500080915A01828320918701309188013E87AF
:103860002D87D9019596BC91BCA7F901F6A1FDA7BA
:10387000D9019796BC91BEA7F901F0A5FFA72091A9
:1038800064013091650140916601509167016CA51A
:103890007DA58B2F9F2F0E94313468A779A78AA717
:1038A0009BA720E030E0A9010E940B3587FF04C0F0
:1038B00018A619A61AA61BA620917D01288F309163
:1038C0007E01398F40917F014A8F509180015B8F3B
:1038D000809175018C8F909176019D8FA0917701D9
:1038E000AE8FB0917801BF8FE0918101E8A3F09194
:1038F0008201F9A3209183012AA3309184013BA383
:1039000040916D014CA350916E015DA380916F01B8
:103910008EA3909170019FA32091790130917A013B
:1039200040917B0150917C0128AB39AB4AAB5BAB3A
:103930003091710139834091720149872090730160
:103940003090740150916C015F878CA58C8B9DA584
:103950009D8BAEA5AE8BBFA5BF8B3EE3C32E33ECD4
:10396000D32E3EE2E32E39E3F32E188A198A1A8AFF
:103970001B8A26013701EF85EE2321F0E13009F49F
:103980007CC0B1C0AD85BE8591962D913D914D9184
:103990005C919497C701B6010E9449374B015C01C5
:1039A00020E030E040E05FE30E9449379B01AC013A
:1039B00069817985C1010E9432349B01AC01C70144
:1039C000B6010E9449379B01AC016C897D898E89C3
:1039D0009F890E9431348B018DAB9CAB288D398D32
:1039E0004A8D5B8D0E940B3587FF3FC0288D398D36
:1039F0004A8D5B8D6CA57DA58EA59FA50E94313457
:103A00009B01AC010E9432346B017C012C8D3D8DF9
:103A10004E8D5F8D69817985C1010E9432349B0191
:103A2000AC01C701B6010E9412356B017C0128A1CF
:103A300039A14AA15BA1688D798D8A8D9B8D0E94E9
:103A40000B35882319F0B1E0BF8702C0E2E0EF87B1
:103A5000FC8DF9832D8D29872E8C3F8C088D198D37
:103A60003A8D3DAB4B8D4CABAFC0A5019401698144
:103A70007985C1010E9432347CC0A70196016C8D0A
:103A80007D8D8E8D9F8D0E9449379B01AC016C8985
:103A90007D898E899F890E9431348B018DAB9CABCF
:103AA00028A139A14AA15BA10E940B3587FF8CC0D8
:103AB00028A139A14AA15BA16C897D898E899F8942
:103AC0000E9431342C8D3D8D4E8D5F8D0E941235BC
:103AD0006B017C0108A119A15AA15DAB8BA18CAB34
:103AE00092E09F8771C0AD85BE8591962D913D91E5
:103AF0004D915C919497C701B6010E9449374B01E3
:103B00005C019B01AC0169817985C1010E940E377E
:103B100018169CF520E030E040E05FE3C501B401F9
:103B20000E9449379B01AC0169817985C1010E94DE
:103B300031349B01AC01C701B6010E9449379B019A
:103B4000AC016C897D898E899F890E9431348B01FB
:103B50008DAB9CAB2CA13DA14EA15FA10E940E3765
:103B600018165CF4A501940169817985C1010E9450
:103B70003134698379871C0127C02CA13DA14EA156
:103B80005FA16C897D898E899F890E9431349B0158
:103B9000AC010E9432346B017C0128A939A94AA9E1
:103BA0005BA969817985C1010E9432349B01AC0116
:103BB000C701B6010E9412356B017C010CA11DA149
:103BC000BEA1BDABEFA1ECABA701960168897989D5
:103BD0008A899B890E943234688B798B8A8B9B8B74
:103BE000A30192010E940B3587FD5AC028A539A573
:103BF0004AA55BA5B8018DA99CA90E940E3718168D
:103C00000CF444C089819985D1018093710190930E
:103C10007201A0937301B0937401FF85F0936C015E
:103C2000409060015090610160906201709063016A
:103C300098014DA95CA9C301B2010E94493769836B
:103C40007A838B839C830E94F8346B017C016091A2
:103C50005C0170915D0180915E0190915F010E9415
:103C6000F8344B015C01A70196010E9431340E9497
:103C70007F3569877A878B879C87E985FA85AD814F
:103C8000BE81ED93FC933097B1F15AC02EE333EC33
:103C90004EE259E3C301B2010E9432342B013C01D0
:103CA000288939894A895B89C301B2010E9431346C
:103CB0006B017C012CA13DA14EA15FA1B8018DA992
:103CC0009CA90E940E3718167CF089819985D10134
:103CD0008093710190937201A0937301B09374016A
:103CE0003F8530936C019CCF0C8B1D8B4DA94E8B67
:103CF0005CA95F8B40CE80911C05803209F5109243
:103D0000710110927201109273011092740110925D
:103D100068011092690110926A0110926B01C092C1
:103D20005C01D0925D01E0925E01F0925F01A3011F
:103D30009201C701B6010E941235AD85BE85EEC065
:103D4000209168013091690140916A0150916B01A5
:103D5000688979898A899B890E9432342B013C01C8
:103D600029813A814B815C81C501B4010E943134C3
:103D70009B01AC01C301B2010E9412354B015C01F1
:103D800029813A814B815C81C701B6010E9431349F
:103D9000A50194010E9449376093680170936901FD
:103DA00080936A0190936B0120EC31EE44E65EE46F
:103DB000C501B4010E9449370E94F8340E947F3542
:103DC000603DB7E07B078105910520F4ED81FE8120
:103DD000158231C0603AFFE07F078105910510F43C
:103DE000E1E009C06034FFE17F078105910510F42F
:103DF000E2E001C0E3E0AD81BE811596EC93AD81B8
:103E0000BE8115962C911597022E04C09695879524
:103E1000779567950A94D2F7E985FA8502C0EE0F87
:103E2000FF1F2A95E2F7ED93FC9361157105F1E010
:103E30008F07910538F4AD81BE8114967C936E9303
:103E4000139706C02FEF3FEFED81FE81348323836C
:103E500080918C0180938D018F5F863019F0809363
:103E60008C0102C010928C0120916D0130916E0185
:103E700040916F0150917001B8018DA99CA90E94D9
:103E80000E371816C4F4E0918701F0918801C8013B
:103E9000ADA9BCA985A396A3A7A3B0A789819A8140
:103EA000AB81BC8180935C0190935D01A0935E0126
:103EB000B0935F015ECA20E030E0A901B8018DA98E
:103EC0009CA90E940E371816ACF510927101109241
:103ED0007201109273011092740110926801109295
:103EE000690110926A0110926B01C0925C01D0923C
:103EF0005D01E0925E01F0925F01009187011091F7
:103F000088012091600130916101409162015091DE
:103F10006301C701B6010E941235D80195966D93D1
:103F20007D938D939C9398970E94D32788E08093EC
:103F30001C0507C010928801109287010E9473240B
:103F400018CAE5960FB6F894DEBF0FBECDBFDF915D
:103F5000CF911F910F91FF90EF90DF90CF90BF9086
:103F6000AF909F908F907F906F905F904F903F9019
:103F70002F90089580911C05847349F06091710120
:103F8000709172018091730190917401089560E0C5
:103F900070E0CB010895F999FECF92BD81BD81E01B
:103FA0008FBB80B50895F894F999FECF92BD81BD7D
:103FB00081E08FBB40B54627842F992787FD9095D8
:103FC000262F30E082239323892B39F06F3F19F09D
:103FD00060BD84E006C084E104C0442321F060BDDC
:103FE00084E28FBBF99A789408959F92AF92BF9222
:103FF000CF92DF92EF92FF920F931F93CF93DF93B5
:104000008C017A016B01C40ED51EEB01912C5C0171
:10401000A61AB70ACE018A0D9B1DCC15DD0591F0BD
:10402000911009C0692D772767FD7095272F221FF2
:104030002227221F01C021E06991922E960E0E9434
:10404000D31FE8CF692DC8018E0D9F1DDF91CF9141
:104050001F910F91FF90EF90DF90CF90BF90AF90A6
:104060009F900C94D31F9F92AF92BF92CF92DF92FA
:10407000EF92FF920F931F93CF93DF938B017A01FF
:104080006C01C40ED51EEC01912C5B01A81AB90A73
:10409000C5018C0F9D1FCC15DD0591F00E94CB1F33
:1040A000911009C0292D332727FD3095232F221F7A
:1040B0002227221F01C021E0922E980E8993E8CF7B
:1040C000C8018E0D9F1D0E94CB1F21E030E0981685
:1040D00011F020E030E0C901DF91CF911F910F91E5
:1040E000FF90EF90DF90CF90BF90AF909F9008959A
:1040F00021E5829FC001112440E550E09D5F0C94B2
:10410000F51F40E550E0BC018EEA93E00C94F51FEA
:104110002DE0829FC00111244CE050E09E5F0C9482
:10412000F51F69E080E090E00E94D31F4DE450E06D
:1041300062E776E081E090E00C94F51F8AE08093DE
:10414000A2068EEF8093A5061092A30680EC8093C2
:10415000A40683E08093A6068AE097EDA3EABCE379
:104160008093A7069093A806A093A906B093AA06E9
:104170008FE692E1A3E0BBE38093AB069093AC069D
:10418000A093AD06B093AE0680E28093B00680E0C7
:1041900090E0A8E4B2E48093B1069093B206A093B5
:1041A000B306B093B40680E090E8ABEBB4E4809340
:1041B000B5069093B606A093B706B093B80684E10F
:1041C00090E09093BA068093B90680E090E0A0E07A
:1041D000B0E48093BB069093BC06A093BD06B09359
:1041E000BE068AE18093AF068CE197ECA1EBB2E4C6
:1041F0008093720690937306A0937406B09375062D
:104200008093760690937706A0937806B09379060C
:1042100080E090E0A8E4B3E480937A0690937B0674
:10422000A0937C06B0937D0680E090E8A2E2B5E41E
:1042300080937E0690937F06A0938006B0938106BC
:104240008093820690938306A0938406B09385069C
:1042500080E090ECAEE9B4E4809386069093870604
:10426000A0938806B093890680E090E0AAE7B4E4C2
:1042700080938A0690938B06A0938C06B0938D064C
:1042800080938E0690938F06A0939006B09391062C
:104290008093920690939306A0939406B09395060C
:1042A00080E090E0AAE7B3EC80939606909397069F
:1042B000A0939806B093990680939A0690939B06D4
:1042C000A0939C06B0939D0680E090E0A8ECB2EC31
:1042D00080939E0690939F06A093A006B093A1069C
:1042E0000C94912060E080E093E00E94D31F60E096
:1042F00081E593E00C94D31F60E08EEA93E00C9488
:10430000D31F1F93CF93DF93182FEB0181E5189FE5
:10431000B00111247D5F40E550E0CE010E943320C2
:10432000892B39F41882BE01812F0E94782080E009
:1043300001C081E0DF91CF911F910895CF93DF936A
:10434000EC0140E550E06EEA73E00E943320892BD7
:1043500031F41882CE010E94812080E001C081E00A
:10436000DF91CF9108951F93CF93DF93182FEB0127
:104370008DE0189FB00111247E5F4CE050E0CE012B
:104380000E943320892B59F48CE0FE0111928A950A
:10439000E9F7BE01812F0E94882080E001C081E002
:1043A000DF91CF911F91089580E090E00E94CB1F94
:1043B000893059F44DE450E061E070E082E796E026
:1043C0000E94332021E0892B09F420E0822F0895F8
:1043D000CF92DF92EF92FF92CF93DF93C82F6A01C3
:1043E0007B0120E030E0A901C701B6010E940B3536
:1043F00087FDEEC0C43608F445C02CE92C0F80E0E0
:104400002330B8F530E0823079F0F901EE0FFF1F6C
:10441000EE0FFF1F833011F1813019F0EE58F94F84
:1044200023C0E258F94F20C0E901CC0FDD1FCC0FAB
:10443000DD1FC657D94F20E030E040E752E4C70106
:10444000B6010E94493720E030E040E752E40E9484
:104450004937688379838A839B83B6C0EA56F94FCC
:10446000F7FAF094F7F8F094C082D182E282F382F6
:10447000ABC08F5F2A3008F4ADC0843009F4AAC005
:104480002A50BECFC701B6010E9417380E947F355F
:104490008C2F90E08C31910508F09CC0FC01E75A0C
:1044A000FF4F0C946438633008F496C06093A20602
:1044B0008BC06093A50688C06093A30602C060937A
:1044C000A4060E94F31880C08091AF06662311F005
:1044D000846007C08B7F05C08091AF06662321F002
:1044E00080648093AF0670C08F7BFBCF8091AF0656
:1044F000662311F08068F5CF8F77F3CF6093A6061F
:1045000063C0C092A706D092A806E092A906F092D6
:10451000AA065AC0C092AB06D092AC06E092AD0695
:10452000F092AE0651C08091AF06662311F0816013
:10453000D8CF8E7FD6CF8091AF06662311F08260F0
:10454000D0CF8D7FCECF8091AF06662321F084FF40
:1045500045C08062C6CF8F7DC4CF8091AF066623F1
:1045600011F0886001C0877F8093AF060E94C92840
:104570002BC08091AF06662311F08061B2CF8F7C93
:10458000B0CF6093B00620C0C092B106D092B20600
:10459000E092B306F092B40617C0C092B506D0926E
:1045A000B606E092B706F092B8060EC070E07093BF
:1045B000BA066093B90608C0C092BB06D092BC068A
:1045C000E092BD06F092BE060E94912080E007C0F6
:1045D00084E005C083E003C086E001C08AE0DF918B
:1045E000CF91FF90EF90DF90CF9008951F93CF93DE
:1045F000DF93CDB7DEB72C970FB6F894DEBF0FBEB2
:10460000CDBF0E94D42181110BC087E00E94752D7F
:104610000E949E200E9472210E947C210E94102EE6
:1046200010E0BE016F5F7F4F812F0E94B321811187
:1046300003C087E00E94752D1F5F183091F72C96FC
:104640000FB6F894DEBF0FBECDBFDF91CF911F91A3
:104650000895882321F0813021F488E0089584E0D2
:10466000089580E10895882321F0813021F480E4C9
:10467000089580E2089580E80895882321F081302C
:1046800021F484E0089582E0089580E108954F9236
:104690005F926F927F928F929F92AF92BF92CF92D2
:1046A000DF92EF92FF920F931F93CF93DF931091BE
:1046B0004902111101C010E1115000914702101779
:1046C00009F4EFC08DE2189FE0011124C55BDD4FB6
:1046D0008D889E88AF88B88C69A17AA18BA19CA196
:1046E0009B01AC010E9432342DA13EA14FA158A5DF
:1046F0000E9449376B017C019B01AC01B401C501EB
:104700000E940B3587FF02C064017501A601B70145
:10471000498B5A8B6B8B7C8B111101C010E1772474
:104720007A94710E701619F02DE2622E27C08091D6
:104730004A02081351C00E947D194EC0679C800137
:104740001124055B1D4F711002C090E1792E7A94FF
:1047500080914A02781202C00E947D19F801C58832
:10476000D688E788F08CA7019601618972898389D0
:1047700094890E940B35811106C0E801809147029F
:104780007812DCCF29C0F80161A172A183A194A1A4
:104790009B01AC010E943234F80125A136A147A14A
:1047A00050A50E94493729893A894B895C890E9422
:1047B00032344B015C01A70196010E940B35F801D0
:1047C00087FF05C0818A928AA38AB48AD6CFC18A1C
:1047D000D28AE38AF48AD1CF60904702FDE26F9ECD
:1047E00080011124055B1D4F77247394760C80E1C2
:1047F000781201C0712C509049028DE2482E751438
:1048000009F44DC0479CE0011124C55BDD4FF80160
:1048100081889288A388B488C988DA88EB88FC8864
:10482000A7019601C501B4010E940B3587FF23C083
:10483000F80161A172A183A194A19B01AC010E9426
:104840003234F80125A136A147A150A50E9449376D
:104850009B01AC01C501B4010E9432344B015C01E3
:10486000A70196010E940B3587FF05C0898A9A8AA5
:10487000AB8ABC8A672C2D893E894F89588D6989FE
:104880007A898B899C890E940B35811101C0672C24
:104890007394F0E17F1201C0712C8E01B0CF609251
:1048A0004702DF91CF911F910F91FF90EF90DF9022
:1048B000CF90BF90AF909F908F907F906F905F90C0
:1048C0004F9008958CE1EBE2F2E0DF011D928A95B2
:1048D000E9F710924A021092490281E0809348025F
:1048E00010924702089590914A02809149028917D7
:1048F00069F081E0890F803109F480E0209147025E
:10490000921302C08093470280934A0208958091D7
:104910004A0290914902981739F02DE2829FC00116
:104920001124855B9D4F089580E090E00895E0910B
:104930004A02EF5FE03109F4E0E080914902E817B4
:1049400061F08DE2E89FF0011124E55BFD4F618984
:104950007289838994890C94D63760E070E0CB012A
:10496000089581E020914A0290914802291380E045
:1049700008952F923F924F925F926F927F928F9203
:104980009F92AF92BF92CF92DF92EF92FF920F93DE
:104990001F93CF93DF93CDB7DEB7AD970FB6F894E3
:1049A000DEBF0FBECDBF4B8F5C8F6D8F7E8FB22E63
:1049B000209149023DE2239F10011124F101E55BA2
:1049C000FD4F1F01158616861786108A15A216A29E
:1049D00017A210A6108249E956E766E97EE741A3CF
:1049E00052A363A374A3E1A6F2A603A714A76C01C4
:1049F00002E716E09E01235F3F4F38A32F8F8BE223
:104A000092E09AA389A37F01FE0131964F01A12C68
:104A1000F60161917191819191916F01F80120816D
:104A20003181428153810E9449370E941937EF8DAD
:104A3000F8A16193719381939193F8A3EF8FE9A10A
:104A4000FAA14190519061907190FAA3E9A3641981
:104A50007509860997092B013C0197FF07C044247B
:104A600055243201461A570A680A790AF701418229
:104A7000528263827482F10125853685478550898B
:104A8000421653066406750610F429013A01F10135
:104A9000458656866786708A0E94AD35F80120816A
:104AA0003181428153810E9412352B013C01F40176
:104AB00061937193819391934F0120E030E0A901BC
:104AC0000E940B3587FF0AC0F10190818A2D9DA7B6
:104AD0000E9433239DA5892BF1018083A3019201BC
:104AE000C301B2010E944937F10125A136A147A1B6
:104AF00050A50E943234F10165A376A387A390A745
:104B0000A3940C5F1F4FF4E0EF0EF11C23E0A21200
:104B10007FCF0E94D6376B017C01F10165A376A39C
:104B200087A390A785859685A785B089892B8A2B31
:104B30008B2B09F4E5C120E030E0A9016B8D7C8D61
:104B40008D8D9E8D0E940B3587FD21C0BB2061F0AD
:104B50002B8D3C8D4D8D5E8DC701B6010E941235A7
:104B60006B8F7C8F8D8F9E8F20E030E040E85FE37D
:104B70006B8D7C8D8D8D9E8D0E940B3587FF0FC0B8
:104B80001B8E1C8E90E89D8FEFE3EE8F08C0F9E935
:104B9000FB8F26E72C8F36E93D8F8EE78E8FA7019E
:104BA000960160E070E080E89FE30E94123569A7FB
:104BB0007AA78BA79CA727E332E03CA32BA38EE721
:104BC00096E09AA389A3FE013D96FA8FE98F9E0194
:104BD0002F5F3F4F38A32F8FC12CD12C7601EF8D43
:104BE000F8A180809180A280B38020E030E0A9010C
:104BF000C501B4010E940B35882309F483C029A59F
:104C00003AA54BA55CA5C501B4010E9449374B01EB
:104C10005C01EF8DF8A160837183828393839B0194
:104C2000AC0160E070E080E89FE30E9412352B0148
:104C30003C01E89477F8E9A1FAA120813181428111
:104C40005381C301B2010E9449376DA37EA38FA394
:104C500098A79B01AC016B8D7C8D8D8D9E8D0E94E4
:104C60000B3587FF08C0FB8DFDA32C8D2EA33D8D3A
:104C70003FA38E8D88A7F101F1A1FB8FF101F2A175
:104C8000FC8FF101F3A1FD8FF101F4A1FE8FE9A1E9
:104C9000FAA12485358546855785C301B2010E9456
:104CA00049373B018C019B01AC016B8D7C8D8D8D57
:104CB0009E8D0E940B3587FF04C06B8C7C8C0D8D04
:104CC0001E8DC301D801F10181A392A3A3A3B4A3B4
:104CD000EBA1FCA12081318142815381C501B40146
:104CE0000E9449379B01AC01C701B6010E943134D3
:104CF0006B017C01FDA1FB8F2EA12C8F3FA13D8F6D
:104D000088A58E8FEF8DF8A13496F8A3EF8F2BA195
:104D10003CA12C5F3F4F3CA32BA389A19AA10496F1
:104D20009AA389A3298D3A8DE217F30709F057CF8B
:104D30009091490280914A0298130AC0F101118AA8
:104D4000128A138A148A118E128E138E148E49C001
:104D5000A701960160E070E080E89FE30E94313493
:104D600020E030E040E05FE30E9449370E94D63700
:104D70006B017C012091A7063091A8064091A906FD
:104D80005091AA06F10161A172A183A194A10E9490
:104D90004937A70196010E9449374B015C01A701E1
:104DA000960160E070E080E89FE30E9431349B014F
:104DB000AC01C501B4010E9412357B018C0120E0D9
:104DC00030E0A9010E940B3587FF04C0E12CF12CD3
:104DD00000E010E0A701B801F101418F528F638F0D
:104DE000748F2B8D3C8D4D8D5E8D6B8D7C8D8D8D5F
:104DF0009E8D0E944937162F072FF82EE92E862FF9
:104E0000902FAF2DBE2DF101858F968FA78FB0A368
:104E1000A18CB28CC38CD48C6090430270904402FD
:104E200080904502909046029301A401612F702F5B
:104E30008F2D9E2D0E940B3587FD0BC09301A40181
:104E4000B501C6010E940B3587FD11C053016401F5
:104E50000EC0212F302F4F2D5E2DB501C6010E94AF
:104E60000B3587FD04C0A12EB02ECF2CDE2CC50142
:104E7000D601F101858B968BA78BB08F8CE0FE015C
:104E80003196A7E3B2E001900D928A95E1F7812F68
:104E9000902FAF2DBE2D8093430290934402A09398
:104EA0004502B09346028CE0FE013D96ABE2B2E0D3
:104EB00001900D928A95E1F7809148028093490212
:104EC0008F5F803109F480E080934802AD960FB681
:104ED000F894DEBF0FBECDBFDF91CF911F910F9130
:104EE000FF90EF90DF90CF90BF90AF909F908F900A
:104EF0007F906F905F904F903F902F900C9447233E
:104F0000AD960FB6F894DEBF0FBECDBFDF91CF9147
:104F10001F910F91FF90EF90DF90CF90BF90AF90D7
:104F20009F908F907F906F905F904F903F902F90C9
:104F3000089580911E0590911F05A0912005B091C4
:104F4000210580932B0290932C02A0932D02B09305
:104F50002E028091220590912305A0912405B09105
:104F6000250580932F0290933002A0933102B093D5
:104F700032028091260590912705A0912805B091D5
:104F800029058093330290933402A0933502B093A5
:104F9000360208958091490290914A02891708F4D7
:104FA000805F891B08950E947D1980914A02809339
:104FB00047020C9447236F927F928F929F92AF92F9
:104FC000BF92CF92DF92EF92FF920F931F93CF93F6
:104FD000DF937C018B016A01FB018081F701E80FFF
:104FE000F11D2081EF012D3229F4229621816624C2
:104FF000639407C02B3211F0219602C022962181C2
:10500000612CA12CB12C712C60E070E0CB01FE0171
:1050100030ED932E920E29E02915C8F0B39428E0C4
:105020002B1588F0A1107A94A5E0B0E09B01AC01AB
:105030000E946A38660F771F881F991F690D711DBE
:10504000811D911D0BC0A11009C0739407C02EEFE4
:10505000921207C0A11005C0AA24A3942196208112
:10506000D6CFBB2009F449C00E94AB354B015C018F
:1050700020E030E0A9010E940B35882361F18FEF19
:1050800078166CF42AE037ED43E25CE3C501B40125
:105090000E9449374B015C0173947394F0CF7812EE
:1050A0000BC02DEC3CEC4CEC5DE3C501B4010E945F
:1050B00049374B015C010FC0772069F020E030E0F8
:1050C00040E251E4C501B4010E9449374B015C0143
:1050D0007A9417149CF3662021F0B7FAB094B7F8CD
:1050E000B094F60180829182A282B382CE19DF0948
:1050F000C150F801C08381E001C080E0DF91CF9111
:105100001F910F91FF90EF90DF90CF90BF90AF90E5
:105110009F908F907F906F900895009741F0EFE9F6
:10512000FFE03197F1F700C000000197F6CF089536
:105130008F929F92AF92BF92CF92DF92EF92FF92A7
:1051400069017A019B01AC010E9449374B015C0166
:10515000A7019601C701B6010E9449379B01AC0126
:10516000C501B4010E943234FF90EF90DF90CF90E0
:10517000BF90AF909F908F900C94D637EBE6F0E005
:105180008081897E8083E8E6F0E080818E7F808365
:10519000089584B1897E84B99091AF0685B196FF58
:1051A00002C0897E01C0866185B993FF0BC08091E2
:1051B0006B00866180936B008091680081608093B2
:1051C000680008950C94BE281F920F920FB60F929C
:1051D00011242F933F934F935F936F937F938F93FC
:1051E0009F93AF93BF93EF93FF9380911C05813002
:1051F00071F080911D0585FD0AC00E9402099FB7CC
:10520000F89480911D05806680931D059FBFFF91D6
:10521000EF91BF91AF919F918F917F916F915F912E
:105220004F913F912F910F900FBE0F901F901895A7
:105230002F923F924F925F926F927F928F929F92A6
:10524000AF92BF92CF92DF92EF92FF920F931F9394
:10525000CF93DF93CDB7DEB76E970FB6F894DEBF6E
:105260000FBECDBF8B8F80911B058111CCC14090AB
:10527000B5065090B6066090B7067090B80606E97D
:1052800016E0188F0F8B9E01235F3F4F59018E014F
:10529000005F1F4F212C1D8A812C912C312C832DD6
:1052A0000E943D23D8018D938D01832D0E942923D7
:1052B000F50181935F01AF89B88DCD90DD90ED90C0
:1052C000FD90B88FAF8BA7019601622D7D89C40137
:1052D0000E940E3718161CF0C22CDD88740133941E
:1052E000B3E03B1621F02C2CDD8A4701D8CF20E01B
:1052F00030E040EC5FEBC701B6010E9449374B013B
:105300005C010E94622446E0342ECC24C394FB8DC1
:10531000EF2FF0E0FE8BED8B9501840130580F8B61
:10532000188F298F3A8F9E01205F3F4F3C8B2B8B2C
:105330008091AF0686FD02C02C2C03C0222423944A
:105340002C24A091B0066A2F70E0DE01119680E057
:1053500090E0D12C40E0582FED89FE89082E02C044
:10536000F595E7950A94E2F79F0121703327E0FF56
:1053700013C04F5FC1100AC0EF88F88C098D1A8DD9
:10538000ED92FD920D931C9313970BC08D929D92FD
:10539000AD92BC92139705C01D921D921D921C9256
:1053A0001397FB0102C0F595E7955A95E2F7E0FFE8
:1053B0000EC0ED90FD900D911C91139717FB109569
:1053C00017F91095ED92FD920D931C931397232BD3
:1053D00041F0EDE0F0E0EC0FFD1FE80FF91F208138
:1053E000D22A019614968330910509F0B4CF642F28
:1053F00070E080E090E00E94AB350E94D6379B01C0
:10540000AC01D0922B05C301B2010E944937AB0118
:10541000BC01EE24EA94FE2C870120E0CE01019627
:105420000E94B9240E949F190E94791616E183B147
:1054300021108127DE015096FE013D962191922F89
:105440009D2129F09C91982311F02095D22211964C
:105450002B893C89E217F30789F7D0922B050E942C
:105460009F1980911D0584FF03C00E944D15CBC07C
:105470008D2D8C71E1F60E942F190E94622480917B
:10548000B9069091BA060E948D284090B1065090BE
:10549000B2066090B3067090B40681E0C8263A94D4
:1054A00009F046CF8091B006E82EF12CF88EEF8AF5
:1054B000C090BB06D090BC06E090BD06F090BE0642
:1054C0009701860130580B8F1C8F2D8F3E8F9EE1E8
:1054D000A92E95E0B92E22E7222E26E0322E9E013B
:1054E0002F5F3F4F490100E010E08D899E89002E1B
:1054F00002C0959587950A94E2F780FF3DC08F8999
:10550000988D002E02C0959587950A94E2F780FF4A
:1055100023C0D10194964D905D906D907C909797AB
:10552000A3019201C701B6010E943234F4016083E5
:10553000718382839383D1012D913D914D915C9133
:10554000C301B2010E9449370E941937F5016083F7
:1055500071838283938323C08B8D9C8DAD8DBE8D93
:10556000F40180839183A283B383D5011D921D92A0
:105570001D921C92139713C0F50160817181828185
:1055800093810E94AD35D1012D913D914D915C915A
:105590000E941235F40160837183828393830F5FCD
:1055A0001F4FF4E08F0E911C24E0A20EB11C34E0DA
:1055B000230E311C0330110509F097CF0E94992763
:1055C0004091B5065091B6066091B7067091B80645
:1055D000EE24EA94FE2C870120E0CE0101960E9481
:1055E000B92488E080931C059FB7F89480911D052D
:1055F000826080931D059FBF0E944D150E945F161B
:1056000084E080931C056E960FB6F894DEBF0FBE43
:10561000CDBFDF91CF911F910F91FF90EF90DF9061
:10562000CF90BF90AF909F908F907F906F905F9042
:105630004F903F902F900895CF92DF92EF92FF927C
:105640000F931F93CF93DF938C01C6E9D6E0F80147
:10565000C190D190E190F1908F0120E030E0A9015C
:10566000C701B6010E940E37181654F029913991DE
:1056700049915991C701B6010E940B3587FF27C098
:1056800080911C05803179F49FB7F89480911D05B5
:10569000886080931D059FBF0E944D1580911B055A
:1056A0008823D1F319C00E9402099FB7F894809112
:1056B0001D05806680931D059FBFDF91CF911F91CF
:1056C0000F91FF90EF90DF90CF900C944D15F6E086
:1056D000C23ADF0709F0BBCFDF91CF911F910F9145
:1056E000FF90EF90DF90CF900895CF93DF93EC0180
:1056F0008991882319F00E949814FACFDF91CF91F5
:105700000895CF93DF93FC018491EF0121968823C4
:1057100021F00E949814FE01F7CFDF91CF910895F8
:10572000EF92FF920F931F93CF93DF93CDB7DEB726
:1057300028970FB6F894DEBF0FBECDBFFE0131969D
:105740007F019E01275F3F4F982F9170919386951F
:10575000E217F307C9F78F01F80182918F01805D8D
:105760000E9498140E151F05B9F728960FB6F894E5
:10577000DEBF0FBECDBFDF91CF911F910F91FF9084
:10578000EF9008951F93CF93DF9300D01F92CDB772
:10579000DEB7811109C080E30F900F900F90DF9169
:1057A000CF911F910C94981490E02AE011E0190F0A
:1057B000E1E0F0E0EC0FFD1FE90FF11D622F0E9408
:1057C0003638905D9083882311F0912FEFCF11230D
:1057D00041F0FE01E10FF11D80810E9498141150EB
:1057E000F6CF0F900F900F90DF91CF911F910895FA
:1057F000BF92CF92DF92EF92FF920F931F93CF93BE
:10580000DF93CDB7DEB72A970FB6F894DEBF0FBE91
:10581000CDBF611571058105910591F480E32A964C
:105820000FB6F894DEBF0FBECDBFDF91CF911F91B1
:105830000F91FF90EF90DF90CF90BF900C94981451
:1058400020E03AE0C32ED12CE12CF12CBB24B39400
:10585000B20E01E010E00C0F1D1F020F111DA70179
:1058600096010E944238F8016083B901CA016115AE
:1058700071058105910511F02B2DE8CFBB2049F072
:10588000FE01EB0DF11D8081805D0E949814BA9499
:10589000F5CF2A960FB6F894DEBF0FBECDBFDF91CD
:1058A000CF911F910F91FF90EF90DF90CF90BF901D
:1058B0000895CF92DF92EF92FF926B017C0197FFE8
:1058C0000AC08DE20E94981466277727CB016C19D5
:1058D0007D098E099F09FF90EF90DF90CF900C9487
:1058E000F82B8F929F92AF92BF92CF92DF92EF925E
:1058F000FF920F931F93CF93DF93CDB7DEB72A9715
:105900000FB6F894DEBF0FBECDBF6B017C01142F24
:1059100020E030E0A9010E940B3587FF07C08DE22F
:105920000E949814F7FAF094F7F8F094012F0230DF
:1059300060F020E030E048EC52E4C701B6010E947C
:1059400049376B017C010250F2CF10FF0AC020E002
:1059500030E040E251E4C701B6010E9449376B01D3
:105960007C0120E030E040E05FE3C701B6010E9427
:1059700032340E947A35E1E0F0E0EC0FFD1FE10FD8
:10598000F11D2EE22083D12C5AE0852E912CA12CE2
:10599000B12C6115710581059105A9F0D11201C0E5
:1059A000D394EE24E394F12CEC0EFD1EED0CF11CCF
:1059B000A50194010E944238605DF7016083B9013E
:1059C000CA01D394E6CF80E3D11648F4E1E0F0E0D9
:1059D000EC0FFD1FED0DF11D8083D394F5CF8D2DC0
:1059E000D1120BC0D394D3948F5FE1E0F0E0EC0FC1
:1059F000FD1FE80FF11D80E38083DD2041F0FE01F3
:105A0000ED0DF11D80810E949814DA94F6CF2A964C
:105A10000FB6F894DEBF0FBECDBFDF91CF911F91BF
:105A20000F91FF90EF90DF90CF90BF90AF909F903D
:105A30008F9008952091AF0620FF08C02BE832E434
:105A400041E25DE30E94493744E001C043E00C9429
:105A5000712C2091AF0620FF08C02BE832E441E210
:105A60005DE30E94493741E001C040E00C94712C95
:105A700043E00C94712C3D988091AF0687FF02C0E3
:105A800045980895459A08951092BF069091AF06E3
:105A900097FD03C090E29093BF06882331F0809178
:105AA000BF0690E289278093BF06089586B1807271
:105AB0009091BF068927089580912C058130A1F42B
:105AC0000E94562D882381F010922C058CE0EEE187
:105AD000F5E0ADE2B5E001900D928A95E1F7809195
